{"abi":[{"type":"constructor","inputs":[{"name":"_factory","type":"address","internalType":"address"},{"name":"_fundingToken","type":"address","internalType":"address"},{"name":"_borrower","type":"address","internalType":"address"},{"name":"_metadataURI","type":"string","internalType":"string"},{"name":"_principal","type":"uint256","internalType":"uint256"},{"name":"_termPeriods","type":"uint256","internalType":"uint256"},{"name":"_periodLength","type":"uint256","internalType":"uint256"},{"name":"_firstDueDate","type":"uint256","internalType":"uint256"},{"name":"_fundraisingDeadline","type":"uint256","internalType":"uint256"},{"name":"_disbursementWindow","type":"uint256","internalType":"uint256"},{"name":"_gracePeriod","type":"uint256","internalType":"uint256"}],"stateMutability":"nonpayable"},{"type":"function","name":"accRepaidPerShare","inputs":[],"outputs":[{"name":"","type":"uint256","internalType":"uint256"}],"stateMutability":"view"},{"type":"function","name":"active","inputs":[],"outputs":[{"name":"","type":"bool","internalType":"bool"}],"stateMutability":"view"},{"type":"function","name":"borrower","inputs":[],"outputs":[{"name":"","type":"address","internalType":"address"}],"stateMutability":"view"},{"type":"function","name":"cancelFundraise","inputs":[],"outputs":[],"stateMutability":"nonpayable"},{"type":"function","name":"cancelIfNoDisburse","inputs":[],"outputs":[],"stateMutability":"nonpayable"},{"type":"function","name":"cancelled","inputs":[],"outputs":[{"name":"","type":"bool","internalType":"bool"}],"stateMutability":"view"},{"type":"function","name":"claim","inputs":[],"outputs":[],"stateMutability":"nonpayable"},{"type":"function","name":"claimableAmount","inputs":[{"name":"contributor","type":"address","internalType":"address"}],"outputs":[{"name":"","type":"uint256","internalType":"uint256"}],"stateMutability":"view"},{"type":"function","name":"completed","inputs":[],"outputs":[{"name":"","type":"bool","internalType":"bool"}],"stateMutability":"view"},{"type":"function","name":"contribute","inputs":[{"name":"amount","type":"uint256","internalType":"uint256"}],"outputs":[],"stateMutability":"nonpayable"},{"type":"function","name":"contributions","inputs":[{"name":"","type":"address","internalType":"address"}],"outputs":[{"name":"","type":"uint256","internalType":"uint256"}],"stateMutability":"view"},{"type":"function","name":"contributors","inputs":[{"name":"","type":"uint256","internalType":"uint256"}],"outputs":[{"name":"","type":"address","internalType":"address"}],"stateMutability":"view"},{"type":"function","name":"contributorsCount","inputs":[],"outputs":[{"name":"","type":"uint256","internalType":"uint256"}],"stateMutability":"view"},{"type":"function","name":"currentDueDate","inputs":[],"outputs":[{"name":"","type":"uint256","internalType":"uint256"}],"stateMutability":"view"},{"type":"function","name":"defaultDeadline","inputs":[],"outputs":[{"name":"","type":"uint256","internalType":"uint256"}],"stateMutability":"view"},{"type":"function","name":"disburse","inputs":[],"outputs":[],"stateMutability":"nonpayable"},{"type":"function","name":"disbursementWindow","inputs":[],"outputs":[{"name":"","type":"uint256","internalType":"uint256"}],"stateMutability":"view"},{"type":"function","name":"factory","inputs":[],"outputs":[{"name":"","type":"address","internalType":"contract IMicroLoanFactory"}],"stateMutability":"view"},{"type":"function","name":"firstDueDate","inputs":[],"outputs":[{"name":"","type":"uint256","internalType":"uint256"}],"stateMutability":"view"},{"type":"function","name":"fundedAt","inputs":[],"outputs":[{"name":"","type":"uint256","internalType":"uint256"}],"stateMutability":"view"},{"type":"function","name":"fundingToken","inputs":[],"outputs":[{"name":"","type":"address","internalType":"contract IERC20"}],"stateMutability":"view"},{"type":"function","name":"fundraisingActive","inputs":[],"outputs":[{"name":"","type":"bool","internalType":"bool"}],"stateMutability":"view"},{"type":"function","name":"fundraisingDeadline","inputs":[],"outputs":[{"name":"","type":"uint256","internalType":"uint256"}],"stateMutability":"view"},{"type":"function","name":"gracePeriod","inputs":[],"outputs":[{"name":"","type":"uint256","internalType":"uint256"}],"stateMutability":"view"},{"type":"function","name":"isDefaulted","inputs":[],"outputs":[{"name":"","type":"bool","internalType":"bool"}],"stateMutability":"view"},{"type":"function","name":"metadataURI","inputs":[],"outputs":[{"name":"","type":"string","internalType":"string"}],"stateMutability":"view"},{"type":"function","name":"nextDuePeriodIndex","inputs":[],"outputs":[{"name":"","type":"uint256","internalType":"uint256"}],"stateMutability":"view"},{"type":"function","name":"outstandingPrincipal","inputs":[],"outputs":[{"name":"","type":"uint256","internalType":"uint256"}],"stateMutability":"view"},{"type":"function","name":"perPeriodPrincipal","inputs":[],"outputs":[{"name":"","type":"uint256","internalType":"uint256"}],"stateMutability":"view"},{"type":"function","name":"periodLength","inputs":[],"outputs":[{"name":"","type":"uint256","internalType":"uint256"}],"stateMutability":"view"},{"type":"function","name":"principal","inputs":[],"outputs":[{"name":"","type":"uint256","internalType":"uint256"}],"stateMutability":"view"},{"type":"function","name":"refund","inputs":[],"outputs":[],"stateMutability":"nonpayable"},{"type":"function","name":"repay","inputs":[{"name":"amount","type":"uint256","internalType":"uint256"}],"outputs":[],"stateMutability":"nonpayable"},{"type":"function","name":"termPeriods","inputs":[],"outputs":[{"name":"","type":"uint256","internalType":"uint256"}],"stateMutability":"view"},{"type":"function","name":"totalFunded","inputs":[],"outputs":[{"name":"","type":"uint256","internalType":"uint256"}],"stateMutability":"view"},{"type":"function","name":"userRewardDebt","inputs":[{"name":"","type":"address","internalType":"address"}],"outputs":[{"name":"","type":"uint256","internalType":"uint256"}],"stateMutability":"view"},{"type":"event","name":"Claimed","inputs":[{"name":"contributor","type":"address","indexed":true,"internalType":"address"},{"name":"amount","type":"uint256","indexed":false,"internalType":"uint256"}],"anonymous":false},{"type":"event","name":"Completed","inputs":[{"name":"totalRepaid","type":"uint256","indexed":false,"internalType":"uint256"}],"anonymous":false},{"type":"event","name":"Contributed","inputs":[{"name":"contributor","type":"address","indexed":true,"internalType":"address"},{"name":"amount","type":"uint256","indexed":false,"internalType":"uint256"}],"anonymous":false},{"type":"event","name":"Disbursed","inputs":[{"name":"borrower","type":"address","indexed":true,"internalType":"address"},{"name":"amount","type":"uint256","indexed":false,"internalType":"uint256"}],"anonymous":false},{"type":"event","name":"FundraisingCancelled","inputs":[],"anonymous":false},{"type":"event","name":"FundraisingClosed","inputs":[{"name":"totalAmount","type":"uint256","indexed":false,"internalType":"uint256"}],"anonymous":false},{"type":"event","name":"LoanDefaulted","inputs":[{"name":"missedPaymentDate","type":"uint256","indexed":false,"internalType":"uint256"},{"name":"periodsOverdue","type":"uint256","indexed":false,"internalType":"uint256"}],"anonymous":false},{"type":"event","name":"PeriodPaid","inputs":[{"name":"periodIndex","type":"uint256","indexed":true,"internalType":"uint256"},{"name":"amountPaid","type":"uint256","indexed":false,"internalType":"uint256"},{"name":"dueDate","type":"uint256","indexed":false,"internalType":"uint256"},{"name":"payer","type":"address","indexed":true,"internalType":"address"}],"anonymous":false},{"type":"event","name":"Refunded","inputs":[{"name":"contributor","type":"address","indexed":true,"internalType":"address"},{"name":"amount","type":"uint256","indexed":false,"internalType":"uint256"}],"anonymous":false},{"type":"event","name":"Repaid","inputs":[{"name":"amountApplied","type":"uint256","indexed":false,"internalType":"uint256"},{"name":"outstandingPrincipal","type":"uint256","indexed":false,"internalType":"uint256"}],"anonymous":false},{"type":"error","name":"AlreadyCompleted","inputs":[]},{"type":"error","name":"AlreadyDisbursed","inputs":[]},{"type":"error","name":"FundraisingEnded","inputs":[]},{"type":"error","name":"FundraisingNotActive","inputs":[]},{"type":"error","name":"GoalExceeded","inputs":[]},{"type":"error","name":"InvalidAmount","inputs":[]},{"type":"error","name":"NoReturnsAvailable","inputs":[]},{"type":"error","name":"NotActive","inputs":[]},{"type":"error","name":"NotBorrower","inputs":[]},{"type":"error","name":"NotFullyFunded","inputs":[]},{"type":"error","name":"ReentrancyGuardReentrantCall","inputs":[]},{"type":"error","name":"SafeERC20FailedOperation","inputs":[{"name":"token","type":"address","internalType":"address"}]}],"bytecode":{"object":"0x6101c0604052346200069e576200226c803803806200001e81620006a2565b928339810190610160818303126200069e576200003b81620006c8565b916200004a60208301620006c8565b906200005960408401620006c8565b60608401519094906001600160401b0381116200069e57840182601f820112156200069e578051906001600160401b0382116200046657620000a5601f8301601f1916602001620006a2565b93828552602083830101116200069e575f5b8281106200068857505060205f918401015260808401519160a085015160c08601519060e0870151926101009889890151956101406101208b01519a01519860015f55600160ff19600254161760025560018060a01b039182811615620006575782821615620006285782841615620005f6578915620005c3578515620005955786156200056557428811156200052d5742891115620004f5578b15620004b0578a156200047a57821660a0521660805260c0528051906001600160401b038211620004665760015490600182811c921680156200045b575b6020831014620004475781601f849311620003e6575b50602090601f83116001146200036f575f9262000363575b50508160011b915f199060031b1c1916176001555b8460e05287526101205261014052610160526101809283526101a09182526004555f60055560405191611b6e9384620006de85396080518481816102db01528181610575015281816109f701528181610aed01528181610d9901528181610f7601526112e8015260a05184818161021b0152818161087701528181610ca70152611204015260c0518481816104c3015281816107cd0152610997015260e0518481816102ad0152818161046f0152818161064d0152818161081601528181610baa01528181610c0901528181610e7c01528181610fd8015281816111df0152611297015251838181610a5c01528181610e5b01528181610fb701528181610ffe01528181611028015281816113e9015261182a0152610120518381816101c10152818161109e015281816113990152818161149201526118590152610140518381816110c5015261154001526101605183818161027401528181610b7f015261157b01525182818161053401528181610c4001526115b60152518181816107020152818161189a01526118eb0152f35b015190505f80620001be565b60015f9081525f805160206200224c8339815191529350601f198516905b818110620003cd5750908460019594939210620003b4575b505050811b01600155620001d3565b01515f1960f88460031b161c191690555f8080620003a5565b929360206001819287860151815501950193016200038d565b60015f529091505f805160206200224c833981519152601f840160051c810191602085106200043c575b90601f859493920160051c01905b8181106200042d5750620001a6565b5f81558493506001016200041e565b909150819062000410565b634e487b7160e01b5f52602260045260245ffd5b91607f169162000190565b634e487b7160e01b5f52604160045260245ffd5b60405162461bcd60e51b815260206004820152600e60248201526d0677261636520706572696f643d360941b6044820152606490fd5b60405162461bcd60e51b815260206004820152601560248201527f64697362757273656d656e742077696e646f773d3000000000000000000000006044820152606490fd5b60405162461bcd60e51b815260206004820152601060248201526f191958591b1a5b99481a5b881c185cdd60821b6044820152606490fd5b60405162461bcd60e51b815260206004820152601060248201526f199a5c9cdd111d59481a5b881c185cdd60821b6044820152606490fd5b60405162461bcd60e51b81526020600482015260086024820152670706572696f643d360c41b6044820152606490fd5b60405162461bcd60e51b815260206004820152600660248201526507465726d3d360d41b6044820152606490fd5b60405162461bcd60e51b815260206004820152600b60248201526a07072696e636970616c3d360ac1b6044820152606490fd5b60405162461bcd60e51b815260206004820152600a6024820152690626f72726f7765723d360b41b6044820152606490fd5b60405162461bcd60e51b81526020600482015260076024820152660746f6b656e3d360cc1b6044820152606490fd5b60405162461bcd60e51b81526020600482015260096024820152680666163746f72793d360bc1b6044820152606490fd5b80602080928401015182828801015201620000b7565b5f80fd5b6040519190601f01601f191682016001600160401b038111838210176200046657604052565b51906001600160a01b03821682036200069e5756fe6080806040526004361015610012575f80fd5b5f90813560e01c90816302fb0c5e1461173e5750806303ee438c146115d957806305b958151461159e57806306a9d1a914611563578063098a73211461152857806329b1829e1461150a578063371fd8e614610f215780633cb5d10014610edd57806342e94c9014610ea057806349415e9414610e435780634bf6f9e714610e025780634e71d92d14610d3a57806350e89b2614610be0578063590e1ae314610a7f5780636b1ea0b614610a445780637569b3d714610a2657806378065f27146109e15780637b73c2ef146109c65780637df1f1b91461098157806389885049146109505780638d672c40146107b25780639a82a09a1461078c5780639b21e4561461076e5780639c42f39d1461074b5780639d9a7fe914610725578063a06db7dc146106ea578063a38aaa90146106c5578063a98a4bd7146106a2578063a9a748ff14610684578063abc6fd0b146104b0578063ad044f4914610492578063ba5d307814610457578063c1cbbca71461024a578063c45a015514610205578063d075c867146101e75763d2ca2115146101aa575f80fd5b346101e457806003193601126101e45760206040517f00000000000000000000000000000000000000000000000000000000000000008152f35b80fd5b50346101e457806003193601126101e4576020600554604051908152f35b50346101e457806003193601126101e4576040517f00000000000000000000000000000000000000000000000000000000000000006001600160a01b03168152602090f35b50346101e45760203660031901126101e4576004356102676119f5565b60ff6002541615610445577f00000000000000000000000000000000000000000000000000000000000000004211610433578015610421576102ab81600354611818565b7f000000000000000000000000000000000000000000000000000000000000000080911161040f576102ff8230337f0000000000000000000000000000000000000000000000000000000000000000611935565b33835260076020526040832054156103b6575b338352600760205260408320610329838254611818565b905561033782600354611818565b91826003556040519081527f62722348256371b5147820d6cad90c40fd2da1ccee18c3ed52c0bca5a61dbbab60203392a28114610377575b506001815580f35b60207f2a5d5a7b780b4de867ec32e429fbdc24f11edad6d868e0c486348f4d95d1eb5c9160ff196002541660025542600655604051908152a15f61036f565b600854680100000000000000008110156103fb578060016103da920160085561178a565b81546001600160a01b0360039290921b91821b19163390911b179055610312565b634e487b7160e01b84526041600452602484fd5b604051634a059c4760e01b8152600490fd5b60405163162908e360e11b8152600490fd5b604051636cb30a9360e11b8152600490fd5b6040516395ea119560e01b8152600490fd5b50346101e457806003193601126101e45760206040517f00000000000000000000000000000000000000000000000000000000000000008152f35b50346101e457806003193601126101e4576020600354604051908152f35b50346101e457806003193601126101e4577f00000000000000000000000000000000000000000000000000000000000000006001600160a01b0381169033829003610672576104fd6119f5565b6002549061051160ff8360081c1615611a16565b60ff82161580610647575b61052590611a56565b600654801561060b57610559907f000000000000000000000000000000000000000000000000000000000000000090611818565b42116105cd576101006105999261ff00191617600255600354907f0000000000000000000000000000000000000000000000000000000000000000611a95565b7f5724630c7039b7451802c963e5285779ee0776995655e2fb2cc6215d909493d96020600354604051908152a26001815580f35b60405162461bcd60e51b8152602060048201526016602482015275191a5cd89d5c9cd9481dda5b991bddc81c185cdcd95960521b6044820152606490fd5b60405162461bcd60e51b81526020600482015260146024820152731b9bdd081e595d08199d5b1b1e48199d5b99195960621b6044820152606490fd5b506003547f00000000000000000000000000000000000000000000000000000000000000001461051c565b604051631963d1e760e31b8152600490fd5b50346101e457806003193601126101e4576020600654604051908152f35b50346101e457806003193601126101e45760206106bd611825565b604051908152f35b50346101e457806003193601126101e45760206106e06118bf565b6040519015158152f35b50346101e457806003193601126101e45760206040517f00000000000000000000000000000000000000000000000000000000000000008152f35b50346101e457806003193601126101e457602060ff60025460101c166040519015158152f35b50346101e457806003193601126101e457602060ff600254166040519015158152f35b50346101e457806003193601126101e4576020600954604051908152f35b50346101e457806003193601126101e457602060ff60025460181c166040519015158152f35b50346101e457806003193601126101e4576001600160a01b037f000000000000000000000000000000000000000000000000000000000000000081163303610672576002549061080860ff8360081c1615611a16565b60ff821615610919576003547f000000000000000000000000000000000000000000000000000000000000000011156108dd576301000000839263ff0000ff191617600255604051907ffb4ac32d081b2fc30421d4750211ce115a491fa4ddd1d6b889a4df9125221e798380a17f000000000000000000000000000000000000000000000000000000000000000016803b156108d95781600481858094632e92ede960e21b83525af180156108ce576108be5750f35b6108c790611762565b6101e45780f35b6040513d84823e3d90fd5b5050fd5b60405162461bcd60e51b8152602060048201526014602482015273185b1c9958591e48199d5b1b1e48199d5b99195960621b6044820152606490fd5b60405162461bcd60e51b815260206004820152600f60248201526e6e6f742066756e6472616973696e6760881b6044820152606490fd5b50346101e45760203660031901126101e457600435906001600160a01b03821682036101e45760206106bd83611af2565b50346101e457806003193601126101e4576040517f00000000000000000000000000000000000000000000000000000000000000006001600160a01b03168152602090f35b50346101e457806003193601126101e45760206106bd611886565b50346101e457806003193601126101e4576040517f00000000000000000000000000000000000000000000000000000000000000006001600160a01b03168152602090f35b50346101e457806003193601126101e4576020600854604051908152f35b50346101e457806003193601126101e45760206040517f00000000000000000000000000000000000000000000000000000000000000008152f35b50346101e457806003193601126101e457610a986119f5565b60ff600254610aac828260081c1615611a16565b60181c1615610b7d575b338152600760205260408120548015610b44573382526007602052816040812055610ae381600354611ae5565b600355610b1181337f0000000000000000000000000000000000000000000000000000000000000000611a95565b6040519081527fd7dee2702d63ad89917b6a4da9981c90c4d24f8c2bdfd64c604ecae57d8d065160203392a26001815580f35b60405162461bcd60e51b81526020600482015260116024820152701b9bdd1a1a5b99c81d1bc81c99599d5b99607a1b6044820152606490fd5b7f0000000000000000000000000000000000000000000000000000000000000000421115610433576003547f000000000000000000000000000000000000000000000000000000000000000003610ab6576040516341d1bdff60e01b8152600490fd5b50346101e457806003193601126101e457600254610c0460ff8260081c1615611a16565b6003547f00000000000000000000000000000000000000000000000000000000000000001480610d2f575b610c3890611a56565b610c656006547f000000000000000000000000000000000000000000000000000000000000000090611818565b421115610cf65763ff0000ff191663010000001760025560405181907ffb4ac32d081b2fc30421d4750211ce115a491fa4ddd1d6b889a4df9125221e798280a17f00000000000000000000000000000000000000000000000000000000000000006001600160a01b0316803b156108d95781600481858094632e92ede960e21b83525af180156108ce576108be5750f35b60405162461bcd60e51b81526020600482015260116024820152701dda5b991bddc81b9bdd081c185cdcd959607a1b6044820152606490fd5b506006541515610c2f565b50346101e457806003193601126101e457610d536119f5565b610d5c33611af2565b8015610df0573382526007602052670de0b6b3a7640000610d846040842054600954906117f1565b04338352600a6020526040832055610dbd81337f0000000000000000000000000000000000000000000000000000000000000000611a95565b6040519081527fd8138f8a3f377c5259ca548e70e4c2de94f129f5a11036a15b69513cba2b426a60203392a26001815580f35b604051632400d77160e01b8152600490fd5b50346101e45760203660031901126101e4576004356001600160a01b03811690819003610e3f578160409160209352600a83522054604051908152f35b5080fd5b50346101e457806003193601126101e45760206106bd7f00000000000000000000000000000000000000000000000000000000000000007f00000000000000000000000000000000000000000000000000000000000000006117d3565b50346101e45760203660031901126101e4576004356001600160a01b03811690819003610e3f578160409160209352600783522054604051908152f35b50346101e45760203660031901126101e457600435906008548210156101e4576020610f088361178a565b905460405160039290921b1c6001600160a01b03168152f35b50346101e45760203660031901126101e457610f3b6119f5565b60025460ff8160081c16156114f85760101c60ff166114e6576004351561042157610f646118bf565b819080611464575b610f9a60043530337f0000000000000000000000000000000000000000000000000000000000000000611935565b8192600435905b81151580611459575b1561144e57600554610ffc7f00000000000000000000000000000000000000000000000000000000000000007f00000000000000000000000000000000000000000000000000000000000000006117d3565b7f00000000000000000000000000000000000000000000000000000000000000005f1981011161143a577f00000000000000000000000000000000000000000000000000000000000000005f19018203611419575061107e611084600454945b8581101561140f5780928380925b61107682600454611ae5565b600455611ae5565b98611818565b938114806113e6575b1561112757906001916110e96110c37f0000000000000000000000000000000000000000000000000000000000000000846117f1565b7f0000000000000000000000000000000000000000000000000000000000000000611818565b6040519182526020820152817f37e7ac33b1697aacc58b6f13b27537c05bcc9cee12009e76cb14e871eadaf46a60403393a301600555939093610fa1565b505091909293505b611312575b5061114181600435611ae5565b806112e1575b5080158015611276575b507f81472a96709c8315c82af40d41ef624a642ad53864b097e53af675593bb4e0356040600454928151908152836020820152a115611192575b6001815580f35b6201000062ff0000196002541617600255670de0b6b3a7640000806009541061126d575b507fdfd517ed69f8a0a57d49fe494e4864fac3cfe3585c14c0bfddf39f72463ec3fd60206040517f00000000000000000000000000000000000000000000000000000000000000008152a1807f00000000000000000000000000000000000000000000000000000000000000006001600160a01b0316803b1561126a578190600460405180948193632e92ede960e21b83525af180156108ce5761125b575b5061118b565b61126490611762565b5f611255565b50fd5b6009555f6111b6565b670de0b6b3a764000090818302918383041417156112cd576112bc6112c4917f0000000000000000000000000000000000000000000000000000000000000000906117d3565b600954611818565b6009555f611151565b634e487b7160e01b83526011600452602483fd5b61130c90337f0000000000000000000000000000000000000000000000000000000000000000611a95565b5f611147565b61131a611825565b8015806113db575b61135d575b6040907ff5c2e2ff5a0aa88c6e9352be55b58e2c44042366ea1a2e7a63b3b8ad3ef36c499282519182526020820152a15f611134565b506005545f1981019081116113c7577ff5c2e2ff5a0aa88c6e9352be55b58e2c44042366ea1a2e7a63b3b8ad3ef36c49916113be6110c36040937f0000000000000000000000000000000000000000000000000000000000000000906117f1565b91509150611327565b634e487b7160e01b84526011600452602484fd5b506005541515611322565b507f0000000000000000000000000000000000000000000000000000000000000000821061108d565b859283809261106a565b60045461107e916110849180821161143357505b9461105c565b905061142d565b634e487b7160e01b86526011600452602486fd5b91905092919261112f565b506004541515610faa565b61146c611825565b801515806114dd575b611480575b50610f6c565b6114b79193506114909042611ae5565b7f0000000000000000000000000000000000000000000000000000000000000000906117d3565b600181018091116114c957915f61147a565b634e487b7160e01b82526011600452602482fd5b50804211611475565b60405163195332a560e01b8152600490fd5b604051634065aaf160e11b8152600490fd5b50346101e457806003193601126101e4576020600454604051908152f35b50346101e457806003193601126101e45760206040517f00000000000000000000000000000000000000000000000000000000000000008152f35b50346101e457806003193601126101e45760206040517f00000000000000000000000000000000000000000000000000000000000000008152f35b50346101e457806003193601126101e45760206040517f00000000000000000000000000000000000000000000000000000000000000008152f35b50346101e457806003193601126101e45760405190809160019182549384841c93808616958615611734575b602096878710811461172057868652879291811561170157506001146116ae575b5050829350601f801994859203011682019382851067ffffffffffffffff86111761169a578492939183604052818452845191828186015281955b8387106116815750506040945090601f9185828601015201168101030190f35b8681018201518888016040015295810195879550611661565b634e487b7160e01b82526041600452602482fd5b80845290915082907fb10e2d527612073b26eecdfd717e6a320cf44b4afac2b0732d9fcbe2b7fa0cf65b8683106116ee575050838095500101845f611626565b80548684018501529183019181016116d8565b60ff191683870152509394859450151560051b8401019050845f611626565b634e487b7160e01b85526022600452602485fd5b94607f1694611605565b905034610e3f5781600319360112610e3f5760209060ff60025460081c1615158152f35b67ffffffffffffffff811161177657604052565b634e487b7160e01b5f52604160045260245ffd5b6008548110156117bf5760085f527ff3f7a9fe364faab93b216da50a3214154f22a0a2b415b23a84c8169e8b636ee301905f90565b634e487b7160e01b5f52603260045260245ffd5b81156117dd570490565b634e487b7160e01b5f52601260045260245ffd5b8181029291811591840414171561180457565b634e487b7160e01b5f52601160045260245ffd5b9190820180921161180457565b6005547f0000000000000000000000000000000000000000000000000000000000000000811015611881576110c361187e917f0000000000000000000000000000000000000000000000000000000000000000906117f1565b90565b505f90565b61188e611825565b80156118815761187e907f000000000000000000000000000000000000000000000000000000000000000090611818565b60025460ff8160081c1615908115611927575b50611923576118df611825565b801561188157611910907f000000000000000000000000000000000000000000000000000000000000000090611818565b42118061191a5790565b50600454151590565b5f90565b60ff915060101c165f6118d2565b6040516323b872dd60e01b60208201526001600160a01b03928316602482015292909116604483015260648083019390935291815260a081019181831067ffffffffffffffff8411176117765761198e92604052611990565b565b905f602091828151910182855af1156119ea575f513d6119e157506001600160a01b0381163b155b6119bf5750565b604051635274afe760e01b81526001600160a01b039091166004820152602490fd5b600114156119b8565b6040513d5f823e3d90fd5b60025f5414611a045760025f55565b604051633ee5aeb560e01b8152600490fd5b15611a1d57565b60405162461bcd60e51b8152602060048201526011602482015270185b1c9958591e48191a5cd89d5c9cd959607a1b6044820152606490fd5b15611a5d57565b60405162461bcd60e51b815260206004820152601060248201526f1b9bdd08199d5b1b1e48199d5b99195960821b6044820152606490fd5b60405163a9059cbb60e01b60208201526001600160a01b039092166024830152604480830193909352918152608081019167ffffffffffffffff8311828410176117765761198e92604052611990565b9190820391821161180457565b6001600160a01b03165f8181526007602052604090205460095461187e9291670de0b6b3a764000091611b24916117f1565b04905f52600a60205260405f205490611ae556fea26469706673582212205315a9617826a5f27eda0f9ec5f1375d5b1f11b0119e78afcf4acdbd98c1024864736f6c63430008140033b10e2d527612073b26eecdfd717e6a320cf44b4afac2b0732d9fcbe2b7fa0cf6","linkReferences":{}},"methodIdentifiers":{"accRepaidPerShare()":"9b21e456","active()":"02fb0c5e","borrower()":"7df1f1b9","cancelFundraise()":"8d672c40","cancelIfNoDisburse()":"50e89b26","cancelled()":"9a82a09a","claim()":"4e71d92d","claimableAmount(address)":"89885049","completed()":"9d9a7fe9","contribute(uint256)":"c1cbbca7","contributions(address)":"42e94c90","contributors(uint256)":"3cb5d100","contributorsCount()":"7569b3d7","currentDueDate()":"a98a4bd7","defaultDeadline()":"7b73c2ef","disburse()":"abc6fd0b","disbursementWindow()":"05b95815","factory()":"c45a0155","firstDueDate()":"098a7321","fundedAt()":"a9a748ff","fundingToken()":"78065f27","fundraisingActive()":"9c42f39d","fundraisingDeadline()":"06a9d1a9","gracePeriod()":"a06db7dc","isDefaulted()":"a38aaa90","metadataURI()":"03ee438c","nextDuePeriodIndex()":"d075c867","outstandingPrincipal()":"29b1829e","perPeriodPrincipal()":"49415e94","periodLength()":"d2ca2115","principal()":"ba5d3078","refund()":"590e1ae3","repay(uint256)":"371fd8e6","termPeriods()":"6b1ea0b6","totalFunded()":"ad044f49","userRewardDebt(address)":"4bf6f9e7"},"id":49}