{"abi":[{"type":"constructor","inputs":[{"name":"_usdc","type":"address","internalType":"address"}],"stateMutability":"nonpayable"},{"type":"function","name":"borrowerLoans","inputs":[{"name":"","type":"address","internalType":"address"},{"name":"","type":"uint256","internalType":"uint256"}],"outputs":[{"name":"","type":"address","internalType":"address"}],"stateMutability":"view"},{"type":"function","name":"createLoan","inputs":[{"name":"borrower","type":"address","internalType":"address"},{"name":"metadataURI","type":"string","internalType":"string"},{"name":"principal","type":"uint256","internalType":"uint256"},{"name":"termPeriods","type":"uint256","internalType":"uint256"},{"name":"periodLength","type":"uint256","internalType":"uint256"},{"name":"firstDueDate","type":"uint256","internalType":"uint256"},{"name":"fundraisingDeadline","type":"uint256","internalType":"uint256"}],"outputs":[{"name":"loanAddr","type":"address","internalType":"address"}],"stateMutability":"nonpayable"},{"type":"function","name":"disbursementWindow","inputs":[],"outputs":[{"name":"","type":"uint256","internalType":"uint256"}],"stateMutability":"view"},{"type":"function","name":"getBorrowerLoans","inputs":[{"name":"_borrower","type":"address","internalType":"address"}],"outputs":[{"name":"","type":"address[]","internalType":"address[]"}],"stateMutability":"view"},{"type":"function","name":"getLoans","inputs":[],"outputs":[{"name":"","type":"address[]","internalType":"address[]"}],"stateMutability":"view"},{"type":"function","name":"gracePeriod","inputs":[],"outputs":[{"name":"","type":"uint256","internalType":"uint256"}],"stateMutability":"view"},{"type":"function","name":"hasActiveLoan","inputs":[{"name":"","type":"address","internalType":"address"}],"outputs":[{"name":"","type":"bool","internalType":"bool"}],"stateMutability":"view"},{"type":"function","name":"loanToBorrower","inputs":[{"name":"","type":"address","internalType":"address"}],"outputs":[{"name":"","type":"address","internalType":"address"}],"stateMutability":"view"},{"type":"function","name":"loans","inputs":[{"name":"","type":"uint256","internalType":"uint256"}],"outputs":[{"name":"","type":"address","internalType":"address"}],"stateMutability":"view"},{"type":"function","name":"maxPeriodLength","inputs":[],"outputs":[{"name":"","type":"uint256","internalType":"uint256"}],"stateMutability":"view"},{"type":"function","name":"maxTermPeriods","inputs":[],"outputs":[{"name":"","type":"uint256","internalType":"uint256"}],"stateMutability":"view"},{"type":"function","name":"minPeriodLength","inputs":[],"outputs":[{"name":"","type":"uint256","internalType":"uint256"}],"stateMutability":"view"},{"type":"function","name":"minPrincipal","inputs":[],"outputs":[{"name":"","type":"uint256","internalType":"uint256"}],"stateMutability":"view"},{"type":"function","name":"minTermPeriods","inputs":[],"outputs":[{"name":"","type":"uint256","internalType":"uint256"}],"stateMutability":"view"},{"type":"function","name":"notifyLoanClosed","inputs":[],"outputs":[],"stateMutability":"nonpayable"},{"type":"function","name":"owner","inputs":[],"outputs":[{"name":"","type":"address","internalType":"address"}],"stateMutability":"view"},{"type":"function","name":"pause","inputs":[],"outputs":[],"stateMutability":"nonpayable"},{"type":"function","name":"paused","inputs":[],"outputs":[{"name":"","type":"bool","internalType":"bool"}],"stateMutability":"view"},{"type":"function","name":"renounceOwnership","inputs":[],"outputs":[],"stateMutability":"nonpayable"},{"type":"function","name":"setBounds","inputs":[{"name":"_minTerm","type":"uint256","internalType":"uint256"},{"name":"_maxTerm","type":"uint256","internalType":"uint256"},{"name":"_minPeriodLen","type":"uint256","internalType":"uint256"},{"name":"_maxPeriodLen","type":"uint256","internalType":"uint256"}],"outputs":[],"stateMutability":"nonpayable"},{"type":"function","name":"setDisbursementWindow","inputs":[{"name":"_window","type":"uint256","internalType":"uint256"}],"outputs":[],"stateMutability":"nonpayable"},{"type":"function","name":"setGracePeriod","inputs":[{"name":"_gracePeriod","type":"uint256","internalType":"uint256"}],"outputs":[],"stateMutability":"nonpayable"},{"type":"function","name":"setMinPrincipal","inputs":[{"name":"_minPrincipal","type":"uint256","internalType":"uint256"}],"outputs":[],"stateMutability":"nonpayable"},{"type":"function","name":"transferOwnership","inputs":[{"name":"newOwner","type":"address","internalType":"address"}],"outputs":[],"stateMutability":"nonpayable"},{"type":"function","name":"unpause","inputs":[],"outputs":[],"stateMutability":"nonpayable"},{"type":"function","name":"usdc","inputs":[],"outputs":[{"name":"","type":"address","internalType":"address"}],"stateMutability":"view"},{"type":"event","name":"LoanCreated","inputs":[{"name":"loan","type":"address","indexed":true,"internalType":"address"},{"name":"borrower","type":"address","indexed":true,"internalType":"address"},{"name":"principal","type":"uint256","indexed":false,"internalType":"uint256"},{"name":"termPeriods","type":"uint256","indexed":false,"internalType":"uint256"}],"anonymous":false},{"type":"event","name":"OwnershipTransferred","inputs":[{"name":"previousOwner","type":"address","indexed":true,"internalType":"address"},{"name":"newOwner","type":"address","indexed":true,"internalType":"address"}],"anonymous":false},{"type":"event","name":"Paused","inputs":[{"name":"account","type":"address","indexed":false,"internalType":"address"}],"anonymous":false},{"type":"event","name":"Unpaused","inputs":[{"name":"account","type":"address","indexed":false,"internalType":"address"}],"anonymous":false},{"type":"error","name":"EnforcedPause","inputs":[]},{"type":"error","name":"ExpectedPause","inputs":[]},{"type":"error","name":"OwnableInvalidOwner","inputs":[{"name":"owner","type":"address","internalType":"address"}]},{"type":"error","name":"OwnableUnauthorizedAccount","inputs":[{"name":"account","type":"address","internalType":"address"}]}],"bytecode":{"object":"0x60a03461012857601f61327538819003918201601f19168301916001600160401b0383118484101761012c5780849260209460405283398101031261012857516001600160a01b03808216808303610128573315610110575f543360018060a01b03198216175f55604051923391167f8be0079c531659141344cd1fd0a4f28419497f9722a3daafe3b4186f6b6457e05f80a36305f5e1006001556003600255603c60035562093a8080600455624f1a0060055562127500600655600755156100e55750608052604051613134908161014182396080518181816107c401526109ba0152f35b62461bcd60e51b81526020600482015260066024820152650757364633d360d41b6044820152606490fd5b604051631e4fbdf760e01b81525f6004820152602490fd5b5f80fd5b634e487b7160e01b5f52604160045260245ffdfe6080604081815260048036101562000015575f80fd5b5f92833560e01c90816305b958151462000d9d57508063110cc7a71462000d2a57806311d1e3001462000d09578063187af5111462000ce857806321d4f8db1462000ca65780633d17d56f14620008c55780633e1458ce14620007f35780633e413bee14620007ad5780633f4ba83a146200073b5780633f79c17914620006fc5780635c975abb14620006d5578063715018a6146200067757806377992bad14620006565780638456cb5914620005f15780638da5cb5b14620005c7578063a06db7dc14620005a6578063aa4a871114620004f8578063b3e555471462000490578063ba3507a6146200046f578063ba4bb7a414620003f8578063e1ec3c68146200039f578063e3ed1902146200033c578063eee8b7ff146200027b578063efd91e41146200025c578063f2f6596014620001e95763f2fde38b1462000159575f80fd5b34620001e5576020366003190112620001e5576200017662000dbb565b906200018162000e45565b6001600160a01b03918216928315620001cf57505082546001600160a01b0319811683178455167f8be0079c531659141344cd1fd0a4f28419497f9722a3daafe3b4186f6b6457e08380a380f35b51631e4fbdf760e01b8152908101849052602490fd5b8280fd5b5034620001e5576020366003190112620001e5578035916200020a62000e45565b82156200021957505060075580f35b906020606492519162461bcd60e51b8352820152601860248201527f677261636520706572696f64206d757374206265203e203000000000000000006044820152fd5b5034620001e55782600319360112620001e55760209250549051908152f35b50919034620003385760209081600319360112620001e5576001600160a01b039182620002a762000dbb565b16845260098152818420908251809482845492838152019387528287209287915b8383106200031e575050505050829003601f01601f191682019267ffffffffffffffff8411838510176200030b57508291826200030792528262000dd6565b0390f35b634e487b7160e01b815260418552602490fd5b8454811686529481019460019485019490920191620002c8565b5080fd5b50503462000338578060031936011262000338576200035a62000dbb565b6001600160a01b0390811683526009602052818320805460243594908510156200039c57506020936200038d9162000e1b565b92905490519260031b1c168152f35b80fd5b5034620001e5576020366003190112620001e55735600854811015620001e55760086020935260018060a01b03907ff3f7a9fe364faab93b216da50a3214154f22a0a2b415b23a84c8169e8b636ee30154169051908152f35b5034620001e55782600319360112620001e557338352600b602052818320546001600160a01b03169081156200043d57508252600a6020528120805460ff1916905580f35b606490602084519162461bcd60e51b8352820152600c60248201526b3ab735b737bbb7103637b0b760a11b6044820152fd5b50503462000338578160031936011262000338576020906002549051908152f35b5034620001e5576020366003190112620001e557803591620004b162000e45565b8215620004c057505060065580f35b906020606492519162461bcd60e51b83528201526012602482015271077696e646f77206d757374206265203e20360741b6044820152fd5b5091903462000338578160031936011262000338578051908160085490818152602080910191600886527ff3f7a9fe364faab93b216da50a3214154f22a0a2b415b23a84c8169e8b636ee39186905b828210620005855750505050829003601f01601f191682019267ffffffffffffffff8411838510176200030b57508291826200030792528262000dd6565b83546001600160a01b03168552938401936001938401939091019062000547565b50503462000338578160031936011262000338576020906007549051908152f35b5050346200033857816003193601126200033857905490516001600160a01b039091168152602090f35b505034620003385781600319360112620003385760207f62e78cea01bee320cd4e420270b5ea74000d11b0c9f74754ebdbfc544b05a258916200063362000e45565b6200063d62000e71565b835460ff60a01b1916600160a01b17845551338152a180f35b50503462000338578160031936011262000338576020906005549051908152f35b83346200039c57806003193601126200039c576200069462000e45565b80546001600160a01b03198116825581906001600160a01b03167f8be0079c531659141344cd1fd0a4f28419497f9722a3daafe3b4186f6b6457e08280a380f35b505034620003385781600319360112620003385760ff6020925460a01c1690519015158152f35b5050346200033857602036600319011262000338576020916001600160a01b03908290826200072a62000dbb565b168152600b85522054169051908152f35b5034620001e55782600319360112620001e5576200075862000e45565b82549060ff8260a01c16156200079f575060ff60a01b19168255513381527f5db9ee0a495bf2e6ff9c91a7834c1ba4fdd244a5e8aa4e537bd38aeae4b073aa90602090a180f35b8251638dfc202b60e01b8152fd5b5050346200033857816003193601126200033857517f00000000000000000000000000000000000000000000000000000000000000006001600160a01b03168152602090f35b5034620001e5576080366003190112620001e55780359060243560443592606435946200081f62000e45565b81151580620008ba575b156200088a57841515806200087f575b156200084d57506002556003555560055580f35b5162461bcd60e51b8152602081850152600d60248201526c706572696f6420626f756e647360981b6044820152606490fd5b508585111562000839565b5162461bcd60e51b8152602081850152600b60248201526a7465726d20626f756e647360a81b6044820152606490fd5b508282111562000829565b509034620001e55760e0366003190112620001e557620008e462000dbb565b602480359067ffffffffffffffff958683116200039c57366023840112156200039c57828601359387851162000338573683868601011162000338576044359760643594608435916200093662000e71565b6001548b1062000c64576002548710158062000c57575b1562000c205789548310158062000c13575b1562000bda576001600160a01b03938416808652600a6020528986205490989060ff1662000b9857600654600754908b519561226c808801958887109087111762000b8657908f8d8f8a989796959462000e938a393088528b7f000000000000000000000000000000000000000000000000000000000000000016602089015287015284610160806060890152870152848c6101809901898801378a88868801015260808601528b60a086015260c085015260a43560e085015260c435610100850152610120840152610140830152601f80199101160103019083f0801562000b7c578116966008549068010000000000000000918281101562000b6a57600181018060085581101562000b58577ff3f7a9fe364faab93b216da50a3214154f22a0a2b415b23a84c8169e8b636ee301946bffffffffffffffffffffffff60a01b958a8782541617905587855260096020528885209182549384101562000b47575050938688809560209c9562000b00867f4ff1bde1d2bfa65462ed9c225b57b8446fe13abb1e46a9aa6161768bf59ed6d79a8f9c98600101815562000e1b565b819291549060031b918c831b921b1916179055828152600a8d52818120600160ff19825416179055888152600b8d522091825416179055825191825288820152a351908152f35b634e487b7160e01b86526041905284fd5b634e487b7160e01b8552603282528585fd5b634e487b7160e01b8552604182528585fd5b86513d84823e3d90fd5b634e487b7160e01b8a5260418f528a8afd5b895162461bcd60e51b81526020818d01526018818901527f626f72726f7765722068617320616374697665206c6f616e00000000000000006044820152606490fd5b885162461bcd60e51b81526020818c015260148188015273706572696f64206f7574206f6620626f756e647360601b6044820152606490fd5b506005548311156200095f565b885162461bcd60e51b81526020818c0152601281880152717465726d206f7574206f6620626f756e647360701b6044820152606490fd5b506003548711156200094d565b885162461bcd60e51b81526020818c01526017818801527f7072696e636970616c2062656c6f77206d696e696d756d0000000000000000006044820152606490fd5b50503462000338576020366003190112620003385760209160ff9082906001600160a01b0362000cd562000dbb565b168152600a855220541690519015158152f35b50503462000338578160031936011262000338576020906001549051908152f35b50503462000338578160031936011262000338576020906003549051908152f35b5034620001e5576020366003190112620001e55780359162000d4b62000e45565b821562000d5a57505060015580f35b906020606492519162461bcd60e51b8352820152601960248201527f6d696e207072696e636970616c206d757374206265203e2030000000000000006044820152fd5b84903462000338578160031936011262000338576020906006548152f35b600435906001600160a01b038216820362000dd257565b5f80fd5b602090816040818301928281528551809452019301915f5b82811062000dfd575050505090565b83516001600160a01b03168552938101939281019260010162000dee565b805482101562000e31575f5260205f2001905f90565b634e487b7160e01b5f52603260045260245ffd5b5f546001600160a01b0316330362000e5957565b60405163118cdaa760e01b8152336004820152602490fd5b60ff5f5460a01c1662000e8057565b60405163d93c066560e01b8152600490fdfe6101c0604052346200069e576200226c803803806200001e81620006a2565b928339810190610160818303126200069e576200003b81620006c8565b916200004a60208301620006c8565b906200005960408401620006c8565b60608401519094906001600160401b0381116200069e57840182601f820112156200069e578051906001600160401b0382116200046657620000a5601f8301601f1916602001620006a2565b93828552602083830101116200069e575f5b8281106200068857505060205f918401015260808401519160a085015160c08601519060e0870151926101009889890151956101406101208b01519a01519860015f55600160ff19600254161760025560018060a01b039182811615620006575782821615620006285782841615620005f6578915620005c3578515620005955786156200056557428811156200052d5742891115620004f5578b15620004b0578a156200047a57821660a0521660805260c0528051906001600160401b038211620004665760015490600182811c921680156200045b575b6020831014620004475781601f849311620003e6575b50602090601f83116001146200036f575f9262000363575b50508160011b915f199060031b1c1916176001555b8460e05287526101205261014052610160526101809283526101a09182526004555f60055560405191611b6e9384620006de85396080518481816102db01528181610575015281816109f701528181610aed01528181610d9901528181610f7601526112e8015260a05184818161021b0152818161087701528181610ca70152611204015260c0518481816104c3015281816107cd0152610997015260e0518481816102ad0152818161046f0152818161064d0152818161081601528181610baa01528181610c0901528181610e7c01528181610fd8015281816111df0152611297015251838181610a5c01528181610e5b01528181610fb701528181610ffe01528181611028015281816113e9015261182a0152610120518381816101c10152818161109e015281816113990152818161149201526118590152610140518381816110c5015261154001526101605183818161027401528181610b7f015261157b01525182818161053401528181610c4001526115b60152518181816107020152818161189a01526118eb0152f35b015190505f80620001be565b60015f9081525f805160206200224c8339815191529350601f198516905b818110620003cd5750908460019594939210620003b4575b505050811b01600155620001d3565b01515f1960f88460031b161c191690555f8080620003a5565b929360206001819287860151815501950193016200038d565b60015f529091505f805160206200224c833981519152601f840160051c810191602085106200043c575b90601f859493920160051c01905b8181106200042d5750620001a6565b5f81558493506001016200041e565b909150819062000410565b634e487b7160e01b5f52602260045260245ffd5b91607f169162000190565b634e487b7160e01b5f52604160045260245ffd5b60405162461bcd60e51b815260206004820152600e60248201526d0677261636520706572696f643d360941b6044820152606490fd5b60405162461bcd60e51b815260206004820152601560248201527f64697362757273656d656e742077696e646f773d3000000000000000000000006044820152606490fd5b60405162461bcd60e51b815260206004820152601060248201526f191958591b1a5b99481a5b881c185cdd60821b6044820152606490fd5b60405162461bcd60e51b815260206004820152601060248201526f199a5c9cdd111d59481a5b881c185cdd60821b6044820152606490fd5b60405162461bcd60e51b81526020600482015260086024820152670706572696f643d360c41b6044820152606490fd5b60405162461bcd60e51b815260206004820152600660248201526507465726d3d360d41b6044820152606490fd5b60405162461bcd60e51b815260206004820152600b60248201526a07072696e636970616c3d360ac1b6044820152606490fd5b60405162461bcd60e51b815260206004820152600a6024820152690626f72726f7765723d360b41b6044820152606490fd5b60405162461bcd60e51b81526020600482015260076024820152660746f6b656e3d360cc1b6044820152606490fd5b60405162461bcd60e51b81526020600482015260096024820152680666163746f72793d360bc1b6044820152606490fd5b80602080928401015182828801015201620000b7565b5f80fd5b6040519190601f01601f191682016001600160401b038111838210176200046657604052565b51906001600160a01b03821682036200069e5756fe6080806040526004361015610012575f80fd5b5f90813560e01c90816302fb0c5e1461173e5750806303ee438c146115d957806305b958151461159e57806306a9d1a914611563578063098a73211461152857806329b1829e1461150a578063371fd8e614610f215780633cb5d10014610edd57806342e94c9014610ea057806349415e9414610e435780634bf6f9e714610e025780634e71d92d14610d3a57806350e89b2614610be0578063590e1ae314610a7f5780636b1ea0b614610a445780637569b3d714610a2657806378065f27146109e15780637b73c2ef146109c65780637df1f1b91461098157806389885049146109505780638d672c40146107b25780639a82a09a1461078c5780639b21e4561461076e5780639c42f39d1461074b5780639d9a7fe914610725578063a06db7dc146106ea578063a38aaa90146106c5578063a98a4bd7146106a2578063a9a748ff14610684578063abc6fd0b146104b0578063ad044f4914610492578063ba5d307814610457578063c1cbbca71461024a578063c45a015514610205578063d075c867146101e75763d2ca2115146101aa575f80fd5b346101e457806003193601126101e45760206040517f00000000000000000000000000000000000000000000000000000000000000008152f35b80fd5b50346101e457806003193601126101e4576020600554604051908152f35b50346101e457806003193601126101e4576040517f00000000000000000000000000000000000000000000000000000000000000006001600160a01b03168152602090f35b50346101e45760203660031901126101e4576004356102676119f5565b60ff6002541615610445577f00000000000000000000000000000000000000000000000000000000000000004211610433578015610421576102ab81600354611818565b7f000000000000000000000000000000000000000000000000000000000000000080911161040f576102ff8230337f0000000000000000000000000000000000000000000000000000000000000000611935565b33835260076020526040832054156103b6575b338352600760205260408320610329838254611818565b905561033782600354611818565b91826003556040519081527f62722348256371b5147820d6cad90c40fd2da1ccee18c3ed52c0bca5a61dbbab60203392a28114610377575b506001815580f35b60207f2a5d5a7b780b4de867ec32e429fbdc24f11edad6d868e0c486348f4d95d1eb5c9160ff196002541660025542600655604051908152a15f61036f565b600854680100000000000000008110156103fb578060016103da920160085561178a565b81546001600160a01b0360039290921b91821b19163390911b179055610312565b634e487b7160e01b84526041600452602484fd5b604051634a059c4760e01b8152600490fd5b60405163162908e360e11b8152600490fd5b604051636cb30a9360e11b8152600490fd5b6040516395ea119560e01b8152600490fd5b50346101e457806003193601126101e45760206040517f00000000000000000000000000000000000000000000000000000000000000008152f35b50346101e457806003193601126101e4576020600354604051908152f35b50346101e457806003193601126101e4577f00000000000000000000000000000000000000000000000000000000000000006001600160a01b0381169033829003610672576104fd6119f5565b6002549061051160ff8360081c1615611a16565b60ff82161580610647575b61052590611a56565b600654801561060b57610559907f000000000000000000000000000000000000000000000000000000000000000090611818565b42116105cd576101006105999261ff00191617600255600354907f0000000000000000000000000000000000000000000000000000000000000000611a95565b7f5724630c7039b7451802c963e5285779ee0776995655e2fb2cc6215d909493d96020600354604051908152a26001815580f35b60405162461bcd60e51b8152602060048201526016602482015275191a5cd89d5c9cd9481dda5b991bddc81c185cdcd95960521b6044820152606490fd5b60405162461bcd60e51b81526020600482015260146024820152731b9bdd081e595d08199d5b1b1e48199d5b99195960621b6044820152606490fd5b506003547f00000000000000000000000000000000000000000000000000000000000000001461051c565b604051631963d1e760e31b8152600490fd5b50346101e457806003193601126101e4576020600654604051908152f35b50346101e457806003193601126101e45760206106bd611825565b604051908152f35b50346101e457806003193601126101e45760206106e06118bf565b6040519015158152f35b50346101e457806003193601126101e45760206040517f00000000000000000000000000000000000000000000000000000000000000008152f35b50346101e457806003193601126101e457602060ff60025460101c166040519015158152f35b50346101e457806003193601126101e457602060ff600254166040519015158152f35b50346101e457806003193601126101e4576020600954604051908152f35b50346101e457806003193601126101e457602060ff60025460181c166040519015158152f35b50346101e457806003193601126101e4576001600160a01b037f000000000000000000000000000000000000000000000000000000000000000081163303610672576002549061080860ff8360081c1615611a16565b60ff821615610919576003547f000000000000000000000000000000000000000000000000000000000000000011156108dd576301000000839263ff0000ff191617600255604051907ffb4ac32d081b2fc30421d4750211ce115a491fa4ddd1d6b889a4df9125221e798380a17f000000000000000000000000000000000000000000000000000000000000000016803b156108d95781600481858094632e92ede960e21b83525af180156108ce576108be5750f35b6108c790611762565b6101e45780f35b6040513d84823e3d90fd5b5050fd5b60405162461bcd60e51b8152602060048201526014602482015273185b1c9958591e48199d5b1b1e48199d5b99195960621b6044820152606490fd5b60405162461bcd60e51b815260206004820152600f60248201526e6e6f742066756e6472616973696e6760881b6044820152606490fd5b50346101e45760203660031901126101e457600435906001600160a01b03821682036101e45760206106bd83611af2565b50346101e457806003193601126101e4576040517f00000000000000000000000000000000000000000000000000000000000000006001600160a01b03168152602090f35b50346101e457806003193601126101e45760206106bd611886565b50346101e457806003193601126101e4576040517f00000000000000000000000000000000000000000000000000000000000000006001600160a01b03168152602090f35b50346101e457806003193601126101e4576020600854604051908152f35b50346101e457806003193601126101e45760206040517f00000000000000000000000000000000000000000000000000000000000000008152f35b50346101e457806003193601126101e457610a986119f5565b60ff600254610aac828260081c1615611a16565b60181c1615610b7d575b338152600760205260408120548015610b44573382526007602052816040812055610ae381600354611ae5565b600355610b1181337f0000000000000000000000000000000000000000000000000000000000000000611a95565b6040519081527fd7dee2702d63ad89917b6a4da9981c90c4d24f8c2bdfd64c604ecae57d8d065160203392a26001815580f35b60405162461bcd60e51b81526020600482015260116024820152701b9bdd1a1a5b99c81d1bc81c99599d5b99607a1b6044820152606490fd5b7f0000000000000000000000000000000000000000000000000000000000000000421115610433576003547f000000000000000000000000000000000000000000000000000000000000000003610ab6576040516341d1bdff60e01b8152600490fd5b50346101e457806003193601126101e457600254610c0460ff8260081c1615611a16565b6003547f00000000000000000000000000000000000000000000000000000000000000001480610d2f575b610c3890611a56565b610c656006547f000000000000000000000000000000000000000000000000000000000000000090611818565b421115610cf65763ff0000ff191663010000001760025560405181907ffb4ac32d081b2fc30421d4750211ce115a491fa4ddd1d6b889a4df9125221e798280a17f00000000000000000000000000000000000000000000000000000000000000006001600160a01b0316803b156108d95781600481858094632e92ede960e21b83525af180156108ce576108be5750f35b60405162461bcd60e51b81526020600482015260116024820152701dda5b991bddc81b9bdd081c185cdcd959607a1b6044820152606490fd5b506006541515610c2f565b50346101e457806003193601126101e457610d536119f5565b610d5c33611af2565b8015610df0573382526007602052670de0b6b3a7640000610d846040842054600954906117f1565b04338352600a6020526040832055610dbd81337f0000000000000000000000000000000000000000000000000000000000000000611a95565b6040519081527fd8138f8a3f377c5259ca548e70e4c2de94f129f5a11036a15b69513cba2b426a60203392a26001815580f35b604051632400d77160e01b8152600490fd5b50346101e45760203660031901126101e4576004356001600160a01b03811690819003610e3f578160409160209352600a83522054604051908152f35b5080fd5b50346101e457806003193601126101e45760206106bd7f00000000000000000000000000000000000000000000000000000000000000007f00000000000000000000000000000000000000000000000000000000000000006117d3565b50346101e45760203660031901126101e4576004356001600160a01b03811690819003610e3f578160409160209352600783522054604051908152f35b50346101e45760203660031901126101e457600435906008548210156101e4576020610f088361178a565b905460405160039290921b1c6001600160a01b03168152f35b50346101e45760203660031901126101e457610f3b6119f5565b60025460ff8160081c16156114f85760101c60ff166114e6576004351561042157610f646118bf565b819080611464575b610f9a60043530337f0000000000000000000000000000000000000000000000000000000000000000611935565b8192600435905b81151580611459575b1561144e57600554610ffc7f00000000000000000000000000000000000000000000000000000000000000007f00000000000000000000000000000000000000000000000000000000000000006117d3565b7f00000000000000000000000000000000000000000000000000000000000000005f1981011161143a577f00000000000000000000000000000000000000000000000000000000000000005f19018203611419575061107e611084600454945b8581101561140f5780928380925b61107682600454611ae5565b600455611ae5565b98611818565b938114806113e6575b1561112757906001916110e96110c37f0000000000000000000000000000000000000000000000000000000000000000846117f1565b7f0000000000000000000000000000000000000000000000000000000000000000611818565b6040519182526020820152817f37e7ac33b1697aacc58b6f13b27537c05bcc9cee12009e76cb14e871eadaf46a60403393a301600555939093610fa1565b505091909293505b611312575b5061114181600435611ae5565b806112e1575b5080158015611276575b507f81472a96709c8315c82af40d41ef624a642ad53864b097e53af675593bb4e0356040600454928151908152836020820152a115611192575b6001815580f35b6201000062ff0000196002541617600255670de0b6b3a7640000806009541061126d575b507fdfd517ed69f8a0a57d49fe494e4864fac3cfe3585c14c0bfddf39f72463ec3fd60206040517f00000000000000000000000000000000000000000000000000000000000000008152a1807f00000000000000000000000000000000000000000000000000000000000000006001600160a01b0316803b1561126a578190600460405180948193632e92ede960e21b83525af180156108ce5761125b575b5061118b565b61126490611762565b5f611255565b50fd5b6009555f6111b6565b670de0b6b3a764000090818302918383041417156112cd576112bc6112c4917f0000000000000000000000000000000000000000000000000000000000000000906117d3565b600954611818565b6009555f611151565b634e487b7160e01b83526011600452602483fd5b61130c90337f0000000000000000000000000000000000000000000000000000000000000000611a95565b5f611147565b61131a611825565b8015806113db575b61135d575b6040907ff5c2e2ff5a0aa88c6e9352be55b58e2c44042366ea1a2e7a63b3b8ad3ef36c499282519182526020820152a15f611134565b506005545f1981019081116113c7577ff5c2e2ff5a0aa88c6e9352be55b58e2c44042366ea1a2e7a63b3b8ad3ef36c49916113be6110c36040937f0000000000000000000000000000000000000000000000000000000000000000906117f1565b91509150611327565b634e487b7160e01b84526011600452602484fd5b506005541515611322565b507f0000000000000000000000000000000000000000000000000000000000000000821061108d565b859283809261106a565b60045461107e916110849180821161143357505b9461105c565b905061142d565b634e487b7160e01b86526011600452602486fd5b91905092919261112f565b506004541515610faa565b61146c611825565b801515806114dd575b611480575b50610f6c565b6114b79193506114909042611ae5565b7f0000000000000000000000000000000000000000000000000000000000000000906117d3565b600181018091116114c957915f61147a565b634e487b7160e01b82526011600452602482fd5b50804211611475565b60405163195332a560e01b8152600490fd5b604051634065aaf160e11b8152600490fd5b50346101e457806003193601126101e4576020600454604051908152f35b50346101e457806003193601126101e45760206040517f00000000000000000000000000000000000000000000000000000000000000008152f35b50346101e457806003193601126101e45760206040517f00000000000000000000000000000000000000000000000000000000000000008152f35b50346101e457806003193601126101e45760206040517f00000000000000000000000000000000000000000000000000000000000000008152f35b50346101e457806003193601126101e45760405190809160019182549384841c93808616958615611734575b602096878710811461172057868652879291811561170157506001146116ae575b5050829350601f801994859203011682019382851067ffffffffffffffff86111761169a578492939183604052818452845191828186015281955b8387106116815750506040945090601f9185828601015201168101030190f35b8681018201518888016040015295810195879550611661565b634e487b7160e01b82526041600452602482fd5b80845290915082907fb10e2d527612073b26eecdfd717e6a320cf44b4afac2b0732d9fcbe2b7fa0cf65b8683106116ee575050838095500101845f611626565b80548684018501529183019181016116d8565b60ff191683870152509394859450151560051b8401019050845f611626565b634e487b7160e01b85526022600452602485fd5b94607f1694611605565b905034610e3f5781600319360112610e3f5760209060ff60025460081c1615158152f35b67ffffffffffffffff811161177657604052565b634e487b7160e01b5f52604160045260245ffd5b6008548110156117bf5760085f527ff3f7a9fe364faab93b216da50a3214154f22a0a2b415b23a84c8169e8b636ee301905f90565b634e487b7160e01b5f52603260045260245ffd5b81156117dd570490565b634e487b7160e01b5f52601260045260245ffd5b8181029291811591840414171561180457565b634e487b7160e01b5f52601160045260245ffd5b9190820180921161180457565b6005547f0000000000000000000000000000000000000000000000000000000000000000811015611881576110c361187e917f0000000000000000000000000000000000000000000000000000000000000000906117f1565b90565b505f90565b61188e611825565b80156118815761187e907f000000000000000000000000000000000000000000000000000000000000000090611818565b60025460ff8160081c1615908115611927575b50611923576118df611825565b801561188157611910907f000000000000000000000000000000000000000000000000000000000000000090611818565b42118061191a5790565b50600454151590565b5f90565b60ff915060101c165f6118d2565b6040516323b872dd60e01b60208201526001600160a01b03928316602482015292909116604483015260648083019390935291815260a081019181831067ffffffffffffffff8411176117765761198e92604052611990565b565b905f602091828151910182855af1156119ea575f513d6119e157506001600160a01b0381163b155b6119bf5750565b604051635274afe760e01b81526001600160a01b039091166004820152602490fd5b600114156119b8565b6040513d5f823e3d90fd5b60025f5414611a045760025f55565b604051633ee5aeb560e01b8152600490fd5b15611a1d57565b60405162461bcd60e51b8152602060048201526011602482015270185b1c9958591e48191a5cd89d5c9cd959607a1b6044820152606490fd5b15611a5d57565b60405162461bcd60e51b815260206004820152601060248201526f1b9bdd08199d5b1b1e48199d5b99195960821b6044820152606490fd5b60405163a9059cbb60e01b60208201526001600160a01b039092166024830152604480830193909352918152608081019167ffffffffffffffff8311828410176117765761198e92604052611990565b9190820391821161180457565b6001600160a01b03165f8181526007602052604090205460095461187e9291670de0b6b3a764000091611b24916117f1565b04905f52600a60205260405f205490611ae556fea26469706673582212205315a9617826a5f27eda0f9ec5f1375d5b1f11b0119e78afcf4acdbd98c1024864736f6c63430008140033b10e2d527612073b26eecdfd717e6a320cf44b4afac2b0732d9fcbe2b7fa0cf6a26469706673582212203bd7827a6ed5529d2ae9e987da2569c5ca33494c66b77a0c5422bbadf02a9ae564736f6c63430008140033","linkReferences":{}},"methodIdentifiers":{"borrowerLoans(address,uint256)":"e3ed1902","createLoan(address,string,uint256,uint256,uint256,uint256,uint256)":"3d17d56f","disbursementWindow()":"05b95815","getBorrowerLoans(address)":"eee8b7ff","getLoans()":"aa4a8711","gracePeriod()":"a06db7dc","hasActiveLoan(address)":"21d4f8db","loanToBorrower(address)":"3f79c179","loans(uint256)":"e1ec3c68","maxPeriodLength()":"77992bad","maxTermPeriods()":"11d1e300","minPeriodLength()":"efd91e41","minPrincipal()":"187af511","minTermPeriods()":"ba3507a6","notifyLoanClosed()":"ba4bb7a4","owner()":"8da5cb5b","pause()":"8456cb59","paused()":"5c975abb","renounceOwnership()":"715018a6","setBounds(uint256,uint256,uint256,uint256)":"3e1458ce","setDisbursementWindow(uint256)":"b3e55547","setGracePeriod(uint256)":"f2f65960","setMinPrincipal(uint256)":"110cc7a7","transferOwnership(address)":"f2fde38b","unpause()":"3f4ba83a","usdc()":"3e413bee"},"id":50}