{"abi":[{"type":"constructor","inputs":[],"stateMutability":"nonpayable"},{"type":"function","name":"DOMAIN_SEPARATOR","inputs":[],"outputs":[{"name":"","type":"bytes32","internalType":"bytes32"}],"stateMutability":"view"},{"type":"function","name":"allowance","inputs":[{"name":"owner","type":"address","internalType":"address"},{"name":"spender","type":"address","internalType":"address"}],"outputs":[{"name":"","type":"uint256","internalType":"uint256"}],"stateMutability":"view"},{"type":"function","name":"approve","inputs":[{"name":"spender","type":"address","internalType":"address"},{"name":"value","type":"uint256","internalType":"uint256"}],"outputs":[{"name":"","type":"bool","internalType":"bool"}],"stateMutability":"nonpayable"},{"type":"function","name":"balanceOf","inputs":[{"name":"account","type":"address","internalType":"address"}],"outputs":[{"name":"","type":"uint256","internalType":"uint256"}],"stateMutability":"view"},{"type":"function","name":"batchMint","inputs":[{"name":"recipients","type":"address[]","internalType":"address[]"},{"name":"amounts","type":"uint256[]","internalType":"uint256[]"}],"outputs":[],"stateMutability":"nonpayable"},{"type":"function","name":"decimals","inputs":[],"outputs":[{"name":"","type":"uint8","internalType":"uint8"}],"stateMutability":"pure"},{"type":"function","name":"eip712Domain","inputs":[],"outputs":[{"name":"fields","type":"bytes1","internalType":"bytes1"},{"name":"name","type":"string","internalType":"string"},{"name":"version","type":"string","internalType":"string"},{"name":"chainId","type":"uint256","internalType":"uint256"},{"name":"verifyingContract","type":"address","internalType":"address"},{"name":"salt","type":"bytes32","internalType":"bytes32"},{"name":"extensions","type":"uint256[]","internalType":"uint256[]"}],"stateMutability":"view"},{"type":"function","name":"faucet","inputs":[{"name":"amount","type":"uint256","internalType":"uint256"}],"outputs":[],"stateMutability":"nonpayable"},{"type":"function","name":"faucetUSDC","inputs":[{"name":"usdcAmount","type":"uint256","internalType":"uint256"}],"outputs":[],"stateMutability":"nonpayable"},{"type":"function","name":"mint","inputs":[{"name":"to","type":"address","internalType":"address"},{"name":"amount","type":"uint256","internalType":"uint256"}],"outputs":[],"stateMutability":"nonpayable"},{"type":"function","name":"mintUSDC","inputs":[{"name":"to","type":"address","internalType":"address"},{"name":"usdcAmount","type":"uint256","internalType":"uint256"}],"outputs":[],"stateMutability":"nonpayable"},{"type":"function","name":"name","inputs":[],"outputs":[{"name":"","type":"string","internalType":"string"}],"stateMutability":"view"},{"type":"function","name":"nonces","inputs":[{"name":"owner","type":"address","internalType":"address"}],"outputs":[{"name":"","type":"uint256","internalType":"uint256"}],"stateMutability":"view"},{"type":"function","name":"permit","inputs":[{"name":"owner","type":"address","internalType":"address"},{"name":"spender","type":"address","internalType":"address"},{"name":"value","type":"uint256","internalType":"uint256"},{"name":"deadline","type":"uint256","internalType":"uint256"},{"name":"v","type":"uint8","internalType":"uint8"},{"name":"r","type":"bytes32","internalType":"bytes32"},{"name":"s","type":"bytes32","internalType":"bytes32"}],"outputs":[],"stateMutability":"nonpayable"},{"type":"function","name":"symbol","inputs":[],"outputs":[{"name":"","type":"string","internalType":"string"}],"stateMutability":"view"},{"type":"function","name":"totalSupply","inputs":[],"outputs":[{"name":"","type":"uint256","internalType":"uint256"}],"stateMutability":"view"},{"type":"function","name":"transfer","inputs":[{"name":"to","type":"address","internalType":"address"},{"name":"value","type":"uint256","internalType":"uint256"}],"outputs":[{"name":"","type":"bool","internalType":"bool"}],"stateMutability":"nonpayable"},{"type":"function","name":"transferFrom","inputs":[{"name":"from","type":"address","internalType":"address"},{"name":"to","type":"address","internalType":"address"},{"name":"value","type":"uint256","internalType":"uint256"}],"outputs":[{"name":"","type":"bool","internalType":"bool"}],"stateMutability":"nonpayable"},{"type":"event","name":"Approval","inputs":[{"name":"owner","type":"address","indexed":true,"internalType":"address"},{"name":"spender","type":"address","indexed":true,"internalType":"address"},{"name":"value","type":"uint256","indexed":false,"internalType":"uint256"}],"anonymous":false},{"type":"event","name":"BatchMinted","inputs":[{"name":"recipients","type":"address[]","indexed":false,"internalType":"address[]"},{"name":"amounts","type":"uint256[]","indexed":false,"internalType":"uint256[]"}],"anonymous":false},{"type":"event","name":"EIP712DomainChanged","inputs":[],"anonymous":false},{"type":"event","name":"Minted","inputs":[{"name":"to","type":"address","indexed":true,"internalType":"address"},{"name":"amount","type":"uint256","indexed":false,"internalType":"uint256"}],"anonymous":false},{"type":"event","name":"Transfer","inputs":[{"name":"from","type":"address","indexed":true,"internalType":"address"},{"name":"to","type":"address","indexed":true,"internalType":"address"},{"name":"value","type":"uint256","indexed":false,"internalType":"uint256"}],"anonymous":false},{"type":"error","name":"ECDSAInvalidSignature","inputs":[]},{"type":"error","name":"ECDSAInvalidSignatureLength","inputs":[{"name":"length","type":"uint256","internalType":"uint256"}]},{"type":"error","name":"ECDSAInvalidSignatureS","inputs":[{"name":"s","type":"bytes32","internalType":"bytes32"}]},{"type":"error","name":"ERC20InsufficientAllowance","inputs":[{"name":"spender","type":"address","internalType":"address"},{"name":"allowance","type":"uint256","internalType":"uint256"},{"name":"needed","type":"uint256","internalType":"uint256"}]},{"type":"error","name":"ERC20InsufficientBalance","inputs":[{"name":"sender","type":"address","internalType":"address"},{"name":"balance","type":"uint256","internalType":"uint256"},{"name":"needed","type":"uint256","internalType":"uint256"}]},{"type":"error","name":"ERC20InvalidApprover","inputs":[{"name":"approver","type":"address","internalType":"address"}]},{"type":"error","name":"ERC20InvalidReceiver","inputs":[{"name":"receiver","type":"address","internalType":"address"}]},{"type":"error","name":"ERC20InvalidSender","inputs":[{"name":"sender","type":"address","internalType":"address"}]},{"type":"error","name":"ERC20InvalidSpender","inputs":[{"name":"spender","type":"address","internalType":"address"}]},{"type":"error","name":"ERC2612ExpiredSignature","inputs":[{"name":"deadline","type":"uint256","internalType":"uint256"}]},{"type":"error","name":"ERC2612InvalidSigner","inputs":[{"name":"signer","type":"address","internalType":"address"},{"name":"owner","type":"address","internalType":"address"}]},{"type":"error","name":"InvalidAccountNonce","inputs":[{"name":"account","type":"address","internalType":"address"},{"name":"currentNonce","type":"uint256","internalType":"uint256"}]},{"type":"error","name":"InvalidShortString","inputs":[]},{"type":"error","name":"StringTooLong","inputs":[{"name":"str","type":"string","internalType":"string"}]}],"bytecode":{"object":"0x6101606040818152346200049557620000188262000499565b60098252602091828101916854657374205553444360b81b93848452815194620000428662000499565b6009865281860152815190620000588262000499565b6005825264745553444360d81b81830152825195620000778762000499565b6001808852603160f81b83890190815282516001600160401b039391929190848111620003a0576003908154928484811c941680156200048a575b8885101462000476578190601f9485811162000423575b508890858311600114620003c0575f92620003b4575b50505f1982841b1c191690841b1781555b865191858311620003a05760049788548581811c9116801562000395575b8982101462000382578281116200033a575b5087918411600114620002d3579383949184925f95620002c7575b50501b925f19911b1c19161784555b6200015586620004b5565b9661012097885262000167896200066d565b96610140978852519020978860e052519020610100978189524660a052855191848301917f8b73c3c69bb8fe3d512ecc4cf759cc79239f7b179b0ffacaa9a75d522b39400f83528784015260608301524660808301523060a083015260a0825260c082019282841090841117620002b457828652815190206080523060c05233156200029e57505060025464e8d4a51000928382018092116200028b57505f917fddf252ad1be2c89b69c2b068fc378daa952ba7f163c4a11628f55a4df523b3ef9160025533835282815284832084815401905584519384523393a351916112ef93846200081b853960805184610f7d015260a05184611049015260c05184610f47015260e05184610fcc01525183610ff20152518261045d015251816104870152f35b601190634e487b7160e01b5f525260245ffd5b63ec442f0560e01b82525f60c490910152602490fd5b604185634e487b7160e01b5f525260245ffd5b015193505f806200013b565b9190601f19841692895f5284895f20945f5b8b8983831062000322575050501062000308575b50505050811b0184556200014a565b01519060f8845f19921b161c191690555f808080620002f9565b868601518955909701969485019488935001620002e5565b895f52885f208380870160051c8201928b881062000378575b0160051c019086905b8281106200036c57505062000120565b5f81550186906200035c565b9250819262000353565b60228a634e487b7160e01b5f525260245ffd5b90607f16906200010e565b634e487b7160e01b5f52604160045260245ffd5b015190505f80620000df565b90869350601f19831691855f528a5f20925f5b8c8282106200040c5750508411620003f4575b505050811b018155620000f0565b01515f1983861b60f8161c191690555f8080620003e6565b8385015186558a97909501949384019301620003d3565b909150835f52885f208580850160051c8201928b86106200046c575b918891869594930160051c01915b8281106200045d575050620000c9565b5f81558594508891016200044d565b925081926200043f565b634e487b7160e01b5f52602260045260245ffd5b93607f1693620000b2565b5f80fd5b604081019081106001600160401b03821117620003a057604052565b8051602091908281101562000551575090601f825111620004f25780825192015190808310620004e457501790565b825f19910360031b1b161790565b90604051809263305a27a960e01b82528060048301528251908160248401525f935b82851062000537575050604492505f838284010152601f80199101168101030190fd5b848101820151868601604401529381019385935062000514565b6001600160401b038111620003a0576005928354926001938481811c9116801562000662575b838210146200047657601f81116200062e575b5081601f8411600114620005c857509282939183925f94620005bc575b50501b915f199060031b1c191617905560ff90565b015192505f80620005a7565b919083601f198116875f52845f20945f905b88838310620006135750505010620005fa575b505050811b01905560ff90565b01515f1960f88460031b161c191690555f8080620005ed565b858701518855909601959485019487935090810190620005da565b855f5284601f845f209201871c820191601f8601881c015b828110620006565750506200058a565b5f815501859062000646565b90607f169062000577565b805160209081811015620006f95750601f8251116200069a5780825192015190808310620004e457501790565b90604051809263305a27a960e01b82528060048301528251908160248401525f935b828510620006df575050604492505f838284010152601f80199101168101030190fd5b8481018201518686016044015293810193859350620006bc565b906001600160401b038211620003a057600654926001938481811c911680156200080f575b838210146200047657601f8111620007d8575b5081601f84116001146200077057509282939183925f9462000764575b50501b915f199060031b1c19161760065560ff90565b015192505f806200074e565b919083601f19811660065f52845f20945f905b88838310620007bd5750505010620007a4575b505050811b0160065560ff90565b01515f1960f88460031b161c191690555f808062000796565b85870151885590960195948501948793509081019062000783565b60065f5284601f845f20920160051c820191601f860160051c015b8281106200080357505062000731565b5f8155018590620007f3565b90607f16906200071e56fe6080604081815260049182361015610015575f80fd5b5f92833560e01c91826306fdde0314610ad157508163095ea7b314610aa757816318160ddd14610a8857816323b872dd14610992578163313ce567146109765781633644e5151461095257816340c10f1914610907578163579158971461088a57816368573107146106a557816370a082311461066e5781637ab091db1461059b5781637ecebe001461056357816384b0196e146104455781638ddbb08a146103bb57816395d89b41146102cc578163a9059cbb1461029b578163d505accf14610133575063dd62ed3e146100e8575f80fd5b3461012f578060031936011261012f5780602092610104610be0565b61010c610bfa565b6001600160a01b0391821683526001865283832091168252845220549051908152f35b5080fd5b8391503461012f5760e036600319011261012f5761014f610be0565b610157610bfa565b906044359260643560843560ff81168103610297578142116102805760018060a01b0390818516928389526007602052898920908154916001830190558a519060208201927f6e71edae12b1b97f4d1f60370fef10105fa2faae0126114a169c64845d6126c98452868d840152858a1660608401528a608084015260a083015260c082015260c0815260e0810181811067ffffffffffffffff82111761026d578b5251902061023b916102329161020c610f44565b908c519161190160f01b83526002830152602282015260c43591604260a4359220610e33565b90929192610ec1565b16818103610252578661024f878787610da6565b80f35b87516325c0072360e11b815292830152602482015260449150fd5b634e487b7160e01b8b526041875260248bfd5b875163313c898160e11b8152808401839052602490fd5b8680fd5b50503461012f578060031936011261012f576020906102c56102bb610be0565b6024359033610ccb565b5160018152f35b919050346103b757826003193601126103b757805191838154906102ef82610c41565b8086529260019280841690811561038c5750600114610330575b61032c868661031a828b0383610ca9565b51918291602083526020830190610ba2565b0390f35b815294507f8a35acfbc15ff81a39ae7d344fd709f28e8600b4aa8c65c6b64bfe7fe36bd19b5b8286106103745750505061031a82602061032c95820101945f610309565b80546020878701810191909152909501948101610356565b905061032c97508693506020925061031a94915060ff191682840152151560051b820101945f610309565b8280fd5b919050346103b757806003193601126103b7576103d6610be0565b9060243592620f424093848102948186041490151715610432575081602091610420857f30385c845b448a36257a6a1716e6ad2e1bc2cbe333cde1e69fe849ad6511adfe95611221565b519384526001600160a01b031692a280f35b634e487b7160e01b855260119052602484fd5b919050346103b757826003193601126103b7576104817f000000000000000000000000000000000000000000000000000000000000000061106f565b926104ab7f0000000000000000000000000000000000000000000000000000000000000000611169565b908251926020928385019585871067ffffffffffffffff881117610550575092806105068388966104f9998b9996528686528151998a99600f60f81b8b5260e0868c015260e08b0190610ba2565b91898303908a0152610ba2565b924660608801523060808801528460a088015286840360c088015251928381520193925b82811061053957505050500390f35b83518552869550938101939281019260010161052a565b634e487b7160e01b845260419052602483fd5b50503461012f57602036600319011261012f5760209181906001600160a01b0361058b610be0565b1681526007845220549051908152f35b919050346103b75760203660031901126103b7578135916103e8831161061b57620f42409283810293818504149015171561060857506105db8233611221565b519081527f30385c845b448a36257a6a1716e6ad2e1bc2cbe333cde1e69fe849ad6511adfe60203392a280f35b634e487b7160e01b845260119052602483fd5b6020608492519162461bcd60e51b8352820152602860248201527f54657374555344433a20416d6f756e74206578636565647320313030302055536044820152671110c81b1a5b5a5d60c21b6064820152fd5b50503461012f57602036600319011261012f5760209181906001600160a01b03610696610be0565b16815280845220549051908152f35b919050346103b757806003193601126103b75767ffffffffffffffff823581811161077f576106d79036908501610c10565b6024929192918235908111610297576106f39036908701610c10565b92909583830361084a576064831161080957875b8381106107b1575050508084519480860190865252606084019290865b8181106107835750505082820360208401528082526001600160fb1b03811161077f577f46c094f2f2404297a48a7c4d47697ed07cd7dcb542f35259c65ace5c1f68e1db93602092849260051b80928583013701030190a180f35b8480fd5b90919384359060018060a01b0382168092036107ad57908152602090810194019190600101610724565b8880fd5b6107bc818588611295565b356001600160a01b0381168103610805576107e3906107dc83888c611295565b3590611221565b5f1981146107f357600101610707565b50634e487b7160e01b88526011905286fd5b8980fd5b601d606492602088519362461bcd60e51b85528401528201527f54657374555344433a20546f6f206d616e7920726563697069656e74730000006044820152fd5b60206064928188519362461bcd60e51b85528401528201527f54657374555344433a20417272617973206c656e677468206d69736d617463686044820152fd5b919050346103b75760203660031901126103b757813591633b9aca0083116108b757506105db8233611221565b6020608492519162461bcd60e51b8352820152602560248201527f54657374555344433a20416d6f756e74206578636565647320666175636574206044820152641b1a5b5a5d60da1b6064820152fd5b50503461012f578060031936011261012f577f30385c845b448a36257a6a1716e6ad2e1bc2cbe333cde1e69fe849ad6511adfe6020610944610be0565b602435936104208583611221565b50503461012f578160031936011261012f5760209061096f610f44565b9051908152f35b50503461012f578160031936011261012f576020905160068152f35b90508234610a85576060366003190112610a85576109ae610be0565b6109b6610bfa565b916044359360018060a01b038316808352600160205286832033845260205286832054915f1983106109f1575b6020886102c5898989610ccb565b868310610a59578115610a42573315610a2b575082526001602090815286832033845281529186902090859003905582906102c5876109e3565b8751634a1406b160e11b8152908101849052602490fd5b875163e602df0560e01b8152908101849052602490fd5b8751637dc7a0d960e11b8152339181019182526020820193909352604081018790528291506060010390fd5b80fd5b50503461012f578160031936011261012f576020906002549051908152f35b50503461012f578060031936011261012f576020906102c5610ac7610be0565b6024359033610da6565b849084346103b757826003193601126103b75782600354610af181610c41565b80855291600191808316908115610b7a5750600114610b1d575b50505061031a8261032c940383610ca9565b9450600385527fc2575a0e9e593c00f959f8c92f12db2869c3395a3b0502d05e2516446f71f85b5b828610610b625750505061031a82602061032c9582010194610b0b565b80546020878701810191909152909501948101610b45565b61032c97508693506020925061031a94915060ff191682840152151560051b82010194610b0b565b91908251928382525f5b848110610bcc575050825f602080949584010152601f8019910116010190565b602081830181015184830182015201610bac565b600435906001600160a01b0382168203610bf657565b5f80fd5b602435906001600160a01b0382168203610bf657565b9181601f84011215610bf65782359167ffffffffffffffff8311610bf6576020808501948460051b010111610bf657565b90600182811c92168015610c6f575b6020831014610c5b57565b634e487b7160e01b5f52602260045260245ffd5b91607f1691610c50565b6040810190811067ffffffffffffffff821117610c9557604052565b634e487b7160e01b5f52604160045260245ffd5b90601f8019910116810190811067ffffffffffffffff821117610c9557604052565b916001600160a01b03808416928315610d8e5716928315610d76575f9083825281602052604082205490838210610d44575091604082827fddf252ad1be2c89b69c2b068fc378daa952ba7f163c4a11628f55a4df523b3ef958760209652828652038282205586815220818154019055604051908152a3565b60405163391434e360e21b81526001600160a01b03919091166004820152602481019190915260448101839052606490fd5b60405163ec442f0560e01b81525f6004820152602490fd5b604051634b637e8f60e11b81525f6004820152602490fd5b6001600160a01b03908116918215610e1b5716918215610e035760207f8c5be1e5ebec7d5bd14f71427d1e84f3dd0314c0f7b2291e5b200ac8c7c3b92591835f526001825260405f20855f5282528060405f2055604051908152a3565b604051634a1406b160e11b81525f6004820152602490fd5b60405163e602df0560e01b81525f6004820152602490fd5b91907f7fffffffffffffffffffffffffffffff5d576e7357a4501ddfe92f46681b20a08411610eb657926020929160ff6080956040519485521684840152604083015260608201525f92839182805260015afa15610eaa5780516001600160a01b03811615610ea157918190565b50809160019190565b604051903d90823e3d90fd5b5050505f9160039190565b6004811015610f305780610ed3575050565b60018103610eed5760405163f645eedf60e01b8152600490fd5b60028103610f0e5760405163fce698f760e01b815260048101839052602490fd5b600314610f185750565b602490604051906335e2f38360e21b82526004820152fd5b634e487b7160e01b5f52602160045260245ffd5b307f00000000000000000000000000000000000000000000000000000000000000006001600160a01b03161480611046575b15610f9f577f000000000000000000000000000000000000000000000000000000000000000090565b60405160208101907f8b73c3c69bb8fe3d512ecc4cf759cc79239f7b179b0ffacaa9a75d522b39400f82527f000000000000000000000000000000000000000000000000000000000000000060408201527f000000000000000000000000000000000000000000000000000000000000000060608201524660808201523060a082015260a0815260c0810181811067ffffffffffffffff821117610c955760405251902090565b507f00000000000000000000000000000000000000000000000000000000000000004614610f76565b60ff81146110ad5760ff811690601f821161109b576040519161109183610c79565b8252602082015290565b604051632cd44ac360e21b8152600490fd5b50604051600554815f6110bf83610c41565b8083529260019081811690811561114757506001146110e9575b506110e692500382610ca9565b90565b60055f90815291507f036b6384b5eca791c62761152d0c79bb0604c104a5fb6f4eb0703f3154bb3db05b84831061112c57506110e693505081016020015f6110d9565b81935090816020925483858901015201910190918492611113565b9050602092506110e694915060ff191682840152151560051b8201015f6110d9565b60ff811461118b5760ff811690601f821161109b576040519161109183610c79565b50604051600654815f61119d83610c41565b8083529260019081811690811561114757506001146111c357506110e692500382610ca9565b60065f90815291507ff652222313e28459528d920b65115c16c04f3efc82aaedc97be59f3f377c0d3f5b84831061120657506110e693505081016020015f6110d9565b819350908160209254838589010152019101909184926111ed565b6001600160a01b0316908115610d7657600254908082018092116112815760207fddf252ad1be2c89b69c2b068fc378daa952ba7f163c4a11628f55a4df523b3ef915f9360025584845283825260408420818154019055604051908152a3565b634e487b7160e01b5f52601160045260245ffd5b91908110156112a55760051b0190565b634e487b7160e01b5f52603260045260245ffdfea26469706673582212209c7de1c02249b22f0d5fca0f1e6ddefad5db83d03072cfaba11f5ada6b7c04e964736f6c63430008140033","linkReferences":{}},"methodIdentifiers":{"DOMAIN_SEPARATOR()":"3644e515","allowance(address,address)":"dd62ed3e","approve(address,uint256)":"095ea7b3","balanceOf(address)":"70a08231","batchMint(address[],uint256[])":"68573107","decimals()":"313ce567","eip712Domain()":"84b0196e","faucet(uint256)":"57915897","faucetUSDC(uint256)":"7ab091db","mint(address,uint256)":"40c10f19","mintUSDC(address,uint256)":"8ddbb08a","name()":"06fdde03","nonces(address)":"7ecebe00","permit(address,address,uint256,uint256,uint8,bytes32,bytes32)":"d505accf","symbol()":"95d89b41","totalSupply()":"18160ddd","transfer(address,uint256)":"a9059cbb","transferFrom(address,address,uint256)":"23b872dd"},"id":51}