{"abi":[{"type":"constructor","inputs":[{"name":"_factory","type":"address","internalType":"address"},{"name":"_fundingToken","type":"address","internalType":"address"},{"name":"_borrower","type":"address","internalType":"address"},{"name":"_metadataURI","type":"string","internalType":"string"},{"name":"_principal","type":"uint256","internalType":"uint256"},{"name":"_dueAt","type":"uint256","internalType":"uint256"},{"name":"_fundraisingDeadline","type":"uint256","internalType":"uint256"},{"name":"_disbursementWindow","type":"uint256","internalType":"uint256"}],"stateMutability":"nonpayable"},{"type":"function","name":"accRepaidPerShare","inputs":[],"outputs":[{"name":"","type":"uint256","internalType":"uint256"}],"stateMutability":"view"},{"type":"function","name":"active","inputs":[],"outputs":[{"name":"","type":"bool","internalType":"bool"}],"stateMutability":"view"},{"type":"function","name":"borrower","inputs":[],"outputs":[{"name":"","type":"address","internalType":"address"}],"stateMutability":"view"},{"type":"function","name":"cancelFundraise","inputs":[],"outputs":[],"stateMutability":"nonpayable"},{"type":"function","name":"cancelIfNoDisburse","inputs":[],"outputs":[],"stateMutability":"nonpayable"},{"type":"function","name":"cancelled","inputs":[],"outputs":[{"name":"","type":"bool","internalType":"bool"}],"stateMutability":"view"},{"type":"function","name":"claim","inputs":[],"outputs":[],"stateMutability":"nonpayable"},{"type":"function","name":"claimFor","inputs":[{"name":"contributor","type":"address","internalType":"address"}],"outputs":[],"stateMutability":"nonpayable"},{"type":"function","name":"claimableAmount","inputs":[{"name":"contributor","type":"address","internalType":"address"}],"outputs":[{"name":"","type":"uint256","internalType":"uint256"}],"stateMutability":"view"},{"type":"function","name":"completed","inputs":[],"outputs":[{"name":"","type":"bool","internalType":"bool"}],"stateMutability":"view"},{"type":"function","name":"contribute","inputs":[{"name":"amount","type":"uint256","internalType":"uint256"}],"outputs":[],"stateMutability":"nonpayable"},{"type":"function","name":"contributeFor","inputs":[{"name":"contributor","type":"address","internalType":"address"},{"name":"amount","type":"uint256","internalType":"uint256"}],"outputs":[],"stateMutability":"nonpayable"},{"type":"function","name":"contributions","inputs":[{"name":"","type":"address","internalType":"address"}],"outputs":[{"name":"","type":"uint256","internalType":"uint256"}],"stateMutability":"view"},{"type":"function","name":"contributors","inputs":[{"name":"","type":"uint256","internalType":"uint256"}],"outputs":[{"name":"","type":"address","internalType":"address"}],"stateMutability":"view"},{"type":"function","name":"contributorsCount","inputs":[],"outputs":[{"name":"","type":"uint256","internalType":"uint256"}],"stateMutability":"view"},{"type":"function","name":"disburse","inputs":[],"outputs":[],"stateMutability":"nonpayable"},{"type":"function","name":"disbursementWindow","inputs":[],"outputs":[{"name":"","type":"uint256","internalType":"uint256"}],"stateMutability":"view"},{"type":"function","name":"dueAt","inputs":[],"outputs":[{"name":"","type":"uint256","internalType":"uint256"}],"stateMutability":"view"},{"type":"function","name":"factory","inputs":[],"outputs":[{"name":"","type":"address","internalType":"contract IMicroLoanFactory"}],"stateMutability":"view"},{"type":"function","name":"fundedAt","inputs":[],"outputs":[{"name":"","type":"uint256","internalType":"uint256"}],"stateMutability":"view"},{"type":"function","name":"fundingToken","inputs":[],"outputs":[{"name":"","type":"address","internalType":"contract IERC20"}],"stateMutability":"view"},{"type":"function","name":"fundraisingActive","inputs":[],"outputs":[{"name":"","type":"bool","internalType":"bool"}],"stateMutability":"view"},{"type":"function","name":"fundraisingDeadline","inputs":[],"outputs":[{"name":"","type":"uint256","internalType":"uint256"}],"stateMutability":"view"},{"type":"function","name":"getStatus","inputs":[],"outputs":[{"name":"_fundraisingActive","type":"bool","internalType":"bool"},{"name":"_active","type":"bool","internalType":"bool"},{"name":"_completed","type":"bool","internalType":"bool"},{"name":"_cancelled","type":"bool","internalType":"bool"},{"name":"_defaulted","type":"bool","internalType":"bool"},{"name":"percentFunded","type":"uint256","internalType":"uint256"},{"name":"percentRepaid","type":"uint256","internalType":"uint256"},{"name":"_secondsUntilDue","type":"uint256","internalType":"uint256"}],"stateMutability":"view"},{"type":"function","name":"isDefaulted","inputs":[],"outputs":[{"name":"","type":"bool","internalType":"bool"}],"stateMutability":"view"},{"type":"function","name":"metadataURI","inputs":[],"outputs":[{"name":"","type":"string","internalType":"string"}],"stateMutability":"view"},{"type":"function","name":"outstandingPrincipal","inputs":[],"outputs":[{"name":"","type":"uint256","internalType":"uint256"}],"stateMutability":"view"},{"type":"function","name":"principal","inputs":[],"outputs":[{"name":"","type":"uint256","internalType":"uint256"}],"stateMutability":"view"},{"type":"function","name":"refund","inputs":[],"outputs":[],"stateMutability":"nonpayable"},{"type":"function","name":"repay","inputs":[{"name":"amount","type":"uint256","internalType":"uint256"}],"outputs":[],"stateMutability":"nonpayable"},{"type":"function","name":"repayFor","inputs":[{"name":"payer","type":"address","internalType":"address"},{"name":"amount","type":"uint256","internalType":"uint256"}],"outputs":[],"stateMutability":"nonpayable"},{"type":"function","name":"secondsUntilDue","inputs":[],"outputs":[{"name":"","type":"uint256","internalType":"uint256"}],"stateMutability":"view"},{"type":"function","name":"totalFunded","inputs":[],"outputs":[{"name":"","type":"uint256","internalType":"uint256"}],"stateMutability":"view"},{"type":"function","name":"totalRepaid","inputs":[],"outputs":[{"name":"","type":"uint256","internalType":"uint256"}],"stateMutability":"view"},{"type":"function","name":"userRewardDebt","inputs":[{"name":"","type":"address","internalType":"address"}],"outputs":[{"name":"","type":"uint256","internalType":"uint256"}],"stateMutability":"view"},{"type":"event","name":"Claimed","inputs":[{"name":"contributor","type":"address","indexed":true,"internalType":"address"},{"name":"amount","type":"uint256","indexed":false,"internalType":"uint256"}],"anonymous":false},{"type":"event","name":"Completed","inputs":[{"name":"totalRepaid","type":"uint256","indexed":false,"internalType":"uint256"},{"name":"timestamp","type":"uint256","indexed":false,"internalType":"uint256"}],"anonymous":false},{"type":"event","name":"Contributed","inputs":[{"name":"contributor","type":"address","indexed":true,"internalType":"address"},{"name":"amount","type":"uint256","indexed":false,"internalType":"uint256"}],"anonymous":false},{"type":"event","name":"Disbursed","inputs":[{"name":"borrower","type":"address","indexed":true,"internalType":"address"},{"name":"amount","type":"uint256","indexed":false,"internalType":"uint256"},{"name":"dueAt","type":"uint256","indexed":false,"internalType":"uint256"}],"anonymous":false},{"type":"event","name":"FundraisingCancelled","inputs":[],"anonymous":false},{"type":"event","name":"FundraisingClosed","inputs":[{"name":"totalAmount","type":"uint256","indexed":false,"internalType":"uint256"}],"anonymous":false},{"type":"event","name":"Refunded","inputs":[{"name":"contributor","type":"address","indexed":true,"internalType":"address"},{"name":"amount","type":"uint256","indexed":false,"internalType":"uint256"}],"anonymous":false},{"type":"event","name":"Repayment","inputs":[{"name":"payer","type":"address","indexed":true,"internalType":"address"},{"name":"amount","type":"uint256","indexed":false,"internalType":"uint256"},{"name":"totalRepaid","type":"uint256","indexed":false,"internalType":"uint256"},{"name":"outstanding","type":"uint256","indexed":false,"internalType":"uint256"},{"name":"timestamp","type":"uint256","indexed":false,"internalType":"uint256"},{"name":"secondsUntilDue","type":"uint256","indexed":false,"internalType":"uint256"}],"anonymous":false},{"type":"error","name":"AlreadyCompleted","inputs":[]},{"type":"error","name":"AlreadyDisbursed","inputs":[]},{"type":"error","name":"FundraisingEnded","inputs":[]},{"type":"error","name":"FundraisingNotActive","inputs":[]},{"type":"error","name":"GoalExceeded","inputs":[]},{"type":"error","name":"InvalidAmount","inputs":[]},{"type":"error","name":"NoReturnsAvailable","inputs":[]},{"type":"error","name":"NotActive","inputs":[]},{"type":"error","name":"NotBorrower","inputs":[]},{"type":"error","name":"NotFullyFunded","inputs":[]},{"type":"error","name":"ReentrancyGuardReentrantCall","inputs":[]},{"type":"error","name":"SafeERC20FailedOperation","inputs":[{"name":"token","type":"address","internalType":"address"}]}],"bytecode":{"object":"0x60406101608152346200054c57620021d2803803806200001f8162000550565b92833981016101009283838303126200054c576200003d8362000576565b916020906200004e82860162000576565b6200005b84870162000576565b606087015190926001600160401b03918281116200054c57880190601f908082840112156200054c578251848111620003b357601f1993620000a382850186168a0162000550565b928284528983830101116200054c5788905f5b838110620005375750505f918301015260808a01519660a08b01519660e060c08d01519c01519a600197885f558860ff19600254161760025560018060a01b0380921690811562000507578216918215620004d957831615620004a8578a156200047657428a111562000442578d4210156200040b578c15620003c75760a05260805260c0528151948511620003b3578554938685811c95168015620003a8575b82861014620003945784848796116200033b575b5081938511600114620002d75750505f92620002cb575b50505f19600383901b1c191690821b1790555b8160e05285526101209384526101409283526005555191611c4693846200058c853960805184818161023501528181610353015281816105b5015281816109be01528181610aa901528181610c0601528181610eb8015281816111700152611431015260a05184818161028c0152818161085001528181610dc6015281816112aa015261156d015260c0518481816104df015281816107cf015261097a015260e051848181610324015281816104890152818161068b01528181610a7a01528181610cbe01528181610d2701528181610f5301528181610fab015281816111ff01526114c00152518381816105e3015281816109420152818161189f01526119060152518281816102ea01528181610a4001528181610c93015261166501525181818161055001528181610d5e01526116a00152f35b015190505f8062000182565b86959392919316855f52835f20935f905b82821062000321575050841162000308575b505050811b01905562000195565b01515f1960f88460031b161c191690555f8080620002fa565b8484015186558897909501949384019390810190620002e8565b909192939450865f52825f208580880160051c8201928589106200038a575b9188978a9297969594930160051c01915b8281106200037b5750506200016b565b5f81558897508991016200036b565b925081926200035a565b634e487b7160e01b5f52602260045260245ffd5b94607f169462000157565b634e487b7160e01b5f52604160045260245ffd5b8b5162461bcd60e51b815260048101859052601560248201527f64697362757273656d656e742077696e646f773d3000000000000000000000006044820152606490fd5b8b5162461bcd60e51b815260048101859052601060248201526f191958591b1a5b99481a5b881c185cdd60821b6044820152606490fd5b8b5162461bcd60e51b815260048101859052600d60248201526c191d59505d081a5b881c185cdd609a1b6044820152606490fd5b8b5162461bcd60e51b815260048101859052600b60248201526a07072696e636970616c3d360ac1b6044820152606490fd5b8b5162461bcd60e51b815260048101859052600a6024820152690626f72726f7765723d360b41b6044820152606490fd5b8c5162461bcd60e51b81526004810186905260076024820152660746f6b656e3d360cc1b6044820152606490fd5b8c5162461bcd60e51b81526004810186905260096024820152680666163746f72793d360bc1b6044820152606490fd5b8181018301518582018401528a9201620000b6565b5f80fd5b6040519190601f01601f191682016001600160401b03811183821017620003b357604052565b51906001600160a01b03821682036200054c5756fe60806040818152600480361015610014575f80fd5b5f92833560e01c90816302fb0c5e1461181f5750806303ee438c146116c357806305b958151461168857806306a9d1a91461164d57806323a27622146113e257806327091210146113c557806329b1829e146113a6578063371fd8e61461112a5780633cb5d100146110d157806342e94c90146110995780634bf6f9e7146110615780634e69d56014610f0d5780634e71d92d14610e5857806350e89b2614610cfc578063590e1ae314610b975780637161133214610a0c5780637569b3d7146109ed57806378065f27146109a95780637df1f1b91461096557806385f1b0901461092a57806389885049146108fd5780638d672c40146107b15780639a82a09a1461078a5780639b21e4561461076b5780639c42f39d146107475780639d9a7fe914610720578063a38aaa90146106fa578063a72dad05146106dd578063a9a748ff146106be578063abc6fd0b146104cb578063ad044f49146104ac578063ba5d307814610471578063c1cbbca7146102bf578063c45a0155146102775763ddeae033146101a1575f80fd5b34610273576020366003190112610273576101ba61186b565b916101c3611a89565b6101cc83611baa565b9182156102655750816020916102597fd8138f8a3f377c5259ca548e70e4c2de94f129f5a11036a15b69513cba2b426a9460018060a01b0387169687895260078652670de0b6b3a7640000610227858b205460095490611b79565b04888a52600a8752848a20557f0000000000000000000000000000000000000000000000000000000000000000611b29565b51908152a26001815580f35b9051632400d77160e01b8152fd5b8280fd5b5050346102bb57816003193601126102bb57517f00000000000000000000000000000000000000000000000000000000000000006001600160a01b03168152602090f35b5080fd5b509034610273576020366003190112610273578135916102dd611a89565b60ff6002541615610463577f000000000000000000000000000000000000000000000000000000000000000042116104555782156104475761032183600354611940565b907f000000000000000000000000000000000000000000000000000000000000000080921161043957506103778330337f00000000000000000000000000000000000000000000000000000000000000006119c9565b3384526007602052818420541561042b575b338452600760205281842061039f848254611940565b90556103ad83600354611940565b928360035582519081527f62722348256371b5147820d6cad90c40fd2da1ccee18c3ed52c0bca5a61dbbab60203392a282146103ec575b826001815580f35b7f2a5d5a7b780b4de867ec32e429fbdc24f11edad6d868e0c486348f4d95d1eb5c9160209160ff19600254166002554260065551908152a15f806103e4565b6104343361194d565b610389565b8251634a059c4760e01b8152fd5b905163162908e360e11b8152fd5b9051636cb30a9360e11b8152fd5b90516395ea119560e01b8152fd5b5050346102bb57816003193601126102bb57602090517f00000000000000000000000000000000000000000000000000000000000000008152f35b5050346102bb57816003193601126102bb576020906003549051908152f35b5090346102735782600319360112610273577f00000000000000000000000000000000000000000000000000000000000000006001600160a01b03811692338490036106b057610519611a89565b6002549061052d60ff8360081c1615611aaa565b60ff82161580610685575b61054190611aea565b600654801561064b57610575907f000000000000000000000000000000000000000000000000000000000000000090611940565b421161060f575061ff001916610100176002556003547fea63d6d9936e4bb9a2bdbbeb385cd9e8e23e2012ec2e099cd84b47896fcf5ec792916105d991907f0000000000000000000000000000000000000000000000000000000000000000611b29565b60035481519081527f00000000000000000000000000000000000000000000000000000000000000006020820152a26001815580f35b606490602085519162461bcd60e51b83528201526016602482015275191a5cd89d5c9cd9481dda5b991bddc81c185cdcd95960521b6044820152fd5b845162461bcd60e51b815260208184015260146024820152731b9bdd081e595d08199d5b1b1e48199d5b99195960621b6044820152606490fd5b506003547f000000000000000000000000000000000000000000000000000000000000000014610538565b8251631963d1e760e31b8152fd5b5050346102bb57816003193601126102bb576020906006549051908152f35b503461027357826003193601126102735760209250549051908152f35b5050346102bb57816003193601126102bb57602090610717611885565b90519015158152f35b5050346102bb57816003193601126102bb5760209060ff60025460101c1690519015158152f35b5050346102bb57816003193601126102bb5760209060ff6002541690519015158152f35b5050346102bb57816003193601126102bb576020906009549051908152f35b5050346102bb57816003193601126102bb5760209060ff60025460181c1690519015158152f35b509190346102bb57816003193601126102bb576001600160a01b03907f0000000000000000000000000000000000000000000000000000000000000000821633036108ee576002549361080a60ff8660081c1615611aaa565b60ff8560181c166108b8576301000000849563ff0000ff1916176002558151927ffb4ac32d081b2fc30421d4750211ce115a491fa4ddd1d6b889a4df9125221e798580a17f000000000000000000000000000000000000000000000000000000000000000016803b156108b457849184838193632e92ede960e21b83525af19081156108ab57506108985750f35b6108a190611843565b6108a85780f35b80fd5b513d84823e3d90fd5b8480fd5b6020606492519162461bcd60e51b83528201526011602482015270185b1c9958591e4818d85b98d95b1b1959607a1b6044820152fd5b51631963d1e760e31b81528390fd5b5050346102bb5760203660031901126102bb5760209061092361091e61186b565b611baa565b9051908152f35b5050346102bb57816003193601126102bb57602090517f00000000000000000000000000000000000000000000000000000000000000008152f35b5050346102bb57816003193601126102bb57517f00000000000000000000000000000000000000000000000000000000000000006001600160a01b03168152602090f35b5050346102bb57816003193601126102bb57517f00000000000000000000000000000000000000000000000000000000000000006001600160a01b03168152602090f35b5050346102bb57816003193601126102bb576020906008549051908152f35b509034610273578060031936011261027357610a2661186b565b9160243592610a33611a89565b60ff6002541615610b88577f00000000000000000000000000000000000000000000000000000000000000004211610b79578315610b6a57610a7784600354611940565b917f0000000000000000000000000000000000000000000000000000000000000000809311610b5c5750610acd8430837f00000000000000000000000000000000000000000000000000000000000000006119c9565b6001600160a01b03811680865260076020528386205490919015610b4d575b508085526007602052828520610b03858254611940565b90557f62722348256371b5147820d6cad90c40fd2da1ccee18c3ed52c0bca5a61dbbab6020610b3486600354611940565b95866003558551908152a282146103ec57826001815580f35b610b569061194d565b5f610aec565b8351634a059c4760e01b8152fd5b50905163162908e360e11b8152fd5b509051636cb30a9360e11b8152fd5b5090516395ea119560e01b8152fd5b509034610273578260031936011261027357610bb1611a89565b60ff600254610bc5828260081c1615611aaa565b60181c1615610c91575b338352600760205280832054918215610c5b575033835260076020528281812055610bfc826003546118e3565b600355610c2a82337f0000000000000000000000000000000000000000000000000000000000000000611b29565b519081527fd7dee2702d63ad89917b6a4da9981c90c4d24f8c2bdfd64c604ecae57d8d065160203392a26001815580f35b6020606492519162461bcd60e51b835282015260116024820152701b9bdd1a1a5b99c81d1bc81c99599d5b99607a1b6044820152fd5b7f0000000000000000000000000000000000000000000000000000000000000000421115610cef576003547f000000000000000000000000000000000000000000000000000000000000000003610bcf57516341d1bdff60e01b8152fd5b51636cb30a9360e11b8152fd5b508290346102bb57816003193601126102bb57600254610d2260ff8260081c1615611aaa565b6003547f00000000000000000000000000000000000000000000000000000000000000001480610e4d575b610d5690611aea565b610d836006547f000000000000000000000000000000000000000000000000000000000000000090611940565b421115610e1657926301000000839463ff0000ff1916176002558051917ffb4ac32d081b2fc30421d4750211ce115a491fa4ddd1d6b889a4df9125221e798480a17f00000000000000000000000000000000000000000000000000000000000000006001600160a01b0316803b156108b457849184838193632e92ede960e21b83525af19081156108ab57506108985750f35b835162461bcd60e51b815260208184015260116024820152701dda5b991bddc81b9bdd081c185cdcd959607a1b6044820152606490fd5b506006541515610d4d565b509034610273578260031936011261027357610e72611a89565b610e7b33611baa565b91821561026557503383526007602052670de0b6b3a7640000610ea48285205460095490611b79565b04338452600a60205281842055610edc82337f0000000000000000000000000000000000000000000000000000000000000000611b29565b519081527fd8138f8a3f377c5259ca548e70e4c2de94f129f5a11036a15b69513cba2b426a60203392a26001815580f35b509190346102bb57816003193601126102bb5760025460ff8160081c1692610f33611885565b6003548015806110595761271080830292830414171561104657610f78907f000000000000000000000000000000000000000000000000000000000000000090611b8c565b915b858061103c575b1561102e578654906127109182810292818404149015171561101b57506101009650610fd060ff917f000000000000000000000000000000000000000000000000000000000000000090611b8c565b935b610fda611904565b958051978383161515895215156020890152828260101c1615159088015260181c16151560608601521515608085015260a084015260c083015260e0820152f35b634e487b7160e01b815260118852602490fd5b610100965060ff9093610fd2565b5086541515610f81565b634e487b7160e01b835260118752602483fd5b505081610f7a565b5050346102bb5760203660031901126102bb5760209181906001600160a01b0361108961186b565b168152600a845220549051908152f35b5050346102bb5760203660031901126102bb5760209181906001600160a01b036110c161186b565b1681526007845220549051908152f35b503461027357602036600319011261027357356008548110156102735760085f527ff3f7a9fe364faab93b216da50a3214154f22a0a2b415b23a84c8169e8b636ee3015490516001600160a01b03909116815260209150f35b508290346102bb5760203660031901126102bb57803592611149611a89565b60025460ff8160081c16156113985760101c60ff1661138b57831561137e576111948430337f00000000000000000000000000000000000000000000000000000000000000006119c9565b6111a96005548086115f1461137757806118e3565b93846005556111b9818454611940565b94858455670de0b6b3a764000090818302928084048303611364577fe4c7c6d4cfcf584ad77981b3d883582adc506723cc79c2217fe4cabb4e37dc32889161122d6112257f00000000000000000000000000000000000000000000000000000000000000008098611b8c565b600954611940565b600955611238611904565b87519182526020820193909352604081018490524260608201526080810192909252339160a090a21561126e575b846001815580f35b6201000062ff00001960025416176002558515801561131f575b5050505f80516020611bf18339815191528184958151908152426020820152a17f00000000000000000000000000000000000000000000000000000000000000006001600160a01b031691823b1561131a578151632e92ede960e21b81529284918491829084905af19081156108ab5750611306575b808080611266565b61130f90611843565b6108a85780826112fe565b505050fd5b818702918783041417156113515784956113485f80516020611bf1833981519152938593611b8c565b60095595611288565b634e487b7160e01b855260118452602485fd5b634e487b7160e01b875260118652602487fd5b85906118e3565b5163162908e360e11b8152fd5b5163195332a560e01b8152fd5b5051634065aaf160e11b8152fd5b5050346102bb57816003193601126102bb576020906005549051908152f35b5050346102bb57816003193601126102bb57602090610923611904565b509190346102bb57806003193601126102bb576113fd61186b565b926024359361140a611a89565b60025460ff8160081c161561163d5760101c60ff1661162e578415610b6a576114558530837f00000000000000000000000000000000000000000000000000000000000000006119c9565b61146a6005548087115f1461162757806118e3565b948560055561147a818454611940565b95868455670de0b6b3a764000090818302928084048303611614577fe4c7c6d4cfcf584ad77981b3d883582adc506723cc79c2217fe4cabb4e37dc3289916114e66112257f00000000000000000000000000000000000000000000000000000000000000008098611b8c565b6009556114f1611904565b895191825260208201939093526040810184905242606082015260808101929092526001600160a01b039586169160a090a215611531575b856001815580f35b6201000062ff0000196002541617600255861580156115cf575b5050505f80516020611bf18339815191528385968151908152426020820152a17f000000000000000000000000000000000000000000000000000000000000000016803b1561131a578391835180958193632e92ede960e21b83525af19081156108ab57506115c0575b808080808594611529565b6115c990611843565b5f6115b5565b818802918883041417156116015785966115f85f80516020611bf1833981519152938793611b8c565b6009559661154b565b634e487b7160e01b865260118452602486fd5b634e487b7160e01b885260118652602488fd5b86906118e3565b50905163195332a560e01b8152fd5b8351634065aaf160e11b81528390fd5b5050346102bb57816003193601126102bb57602090517f00000000000000000000000000000000000000000000000000000000000000008152f35b5050346102bb57816003193601126102bb57602090517f00000000000000000000000000000000000000000000000000000000000000008152f35b50903461027357826003193601126102735780518360019485549081871c878316978815611815575b6020938483108a1461180257848798999a84895291825f146117e6575050600114611793575b5050601f801995869203011683019583871067ffffffffffffffff881117611780575085929391838652818452845191828186015281955b8387106117685750508394508582601f949501015201168101030190f35b8681018201518988018901529581019588955061174a565b634e487b7160e01b835260419052602482fd5b8085528492507fb10e2d527612073b26eecdfd717e6a320cf44b4afac2b0732d9fcbe2b7fa0cf65b8284106117d057505050830181015f80611712565b80548885018601528796509284019281016117bb565b925093505060ff191682860152151560051b8401015f80611712565b634e487b7160e01b865260228952602486fd5b90607f16906116ec565b8490346102bb57816003193601126102bb5760209060ff60025460081c1615158152f35b67ffffffffffffffff811161185757604052565b634e487b7160e01b5f52604160045260245ffd5b600435906001600160a01b038216820361188157565b5f80fd5b60025460ff8160081c16159081156118d5575b506118d1577f00000000000000000000000000000000000000000000000000000000000000004211806118c85790565b50600554151590565b5f90565b60ff915060101c165f611898565b919082039182116118f057565b634e487b7160e01b5f52601160045260245ffd5b7f00000000000000000000000000000000000000000000000000000000000000008042101561193b576119389042906118e3565b90565b505f90565b919082018092116118f057565b600854680100000000000000008110156118575760018101806008558110156119b55760085f527ff3f7a9fe364faab93b216da50a3214154f22a0a2b415b23a84c8169e8b636ee30180546001600160a01b0319166001600160a01b03909216919091179055565b634e487b7160e01b5f52603260045260245ffd5b6040516323b872dd60e01b60208201526001600160a01b03928316602482015292909116604483015260648083019390935291815260a081019181831067ffffffffffffffff84111761185757611a2292604052611a24565b565b905f602091828151910182855af115611a7e575f513d611a7557506001600160a01b0381163b155b611a535750565b604051635274afe760e01b81526001600160a01b039091166004820152602490fd5b60011415611a4c565b6040513d5f823e3d90fd5b60025f5414611a985760025f55565b604051633ee5aeb560e01b8152600490fd5b15611ab157565b60405162461bcd60e51b8152602060048201526011602482015270185b1c9958591e48191a5cd89d5c9cd959607a1b6044820152606490fd5b15611af157565b60405162461bcd60e51b815260206004820152601060248201526f1b9bdd08199d5b1b1e48199d5b99195960821b6044820152606490fd5b60405163a9059cbb60e01b60208201526001600160a01b039092166024830152604480830193909352918152608081019167ffffffffffffffff83118284101761185757611a2292604052611a24565b818102929181159184041417156118f057565b8115611b96570490565b634e487b7160e01b5f52601260045260245ffd5b6001600160a01b03165f818152600760205260409020546009546119389291670de0b6b3a764000091611bdc91611b79565b04905f52600a60205260405f2054906118e356fe12a1c1987aa73679916aba446c3dc908aba127ae71d422c51cece3350d680f08a2646970667358221220e0f175993b2f06cd56da1c46350388ad45b6f5906e7a51f80046d17368e61a3264736f6c63430008140033","linkReferences":{}},"methodIdentifiers":{"accRepaidPerShare()":"9b21e456","active()":"02fb0c5e","borrower()":"7df1f1b9","cancelFundraise()":"8d672c40","cancelIfNoDisburse()":"50e89b26","cancelled()":"9a82a09a","claim()":"4e71d92d","claimFor(address)":"ddeae033","claimableAmount(address)":"89885049","completed()":"9d9a7fe9","contribute(uint256)":"c1cbbca7","contributeFor(address,uint256)":"71611332","contributions(address)":"42e94c90","contributors(uint256)":"3cb5d100","contributorsCount()":"7569b3d7","disburse()":"abc6fd0b","disbursementWindow()":"05b95815","dueAt()":"85f1b090","factory()":"c45a0155","fundedAt()":"a9a748ff","fundingToken()":"78065f27","fundraisingActive()":"9c42f39d","fundraisingDeadline()":"06a9d1a9","getStatus()":"4e69d560","isDefaulted()":"a38aaa90","metadataURI()":"03ee438c","outstandingPrincipal()":"29b1829e","principal()":"ba5d3078","refund()":"590e1ae3","repay(uint256)":"371fd8e6","repayFor(address,uint256)":"23a27622","secondsUntilDue()":"27091210","totalFunded()":"ad044f49","totalRepaid()":"a72dad05","userRewardDebt(address)":"4bf6f9e7"},"id":50}